:020000021000EC
:1000000078563412FFFFFFFF01000000FFFFFFFFE3
:10001000000000004E4F5F50524F470000000000AC
:1000200000000000000000000000000000000000D0
:1000300000000000000000000000000000000000C0
:1000400000000000000000000000000000000000B0
:1000500000000000000000000000000000000000A0
:1010000000F001205114010099140100991401000D
:1010100099140100991401009914010000000000C6
:101020000000000000000000000000009914010012
:1010300099140100000000009914010045C6010048
:10104000296A0100336A01003D6A0100476A010014
:10105000516A01005B6A0100656A01006F6A010064
:10106000796A0100836A01008D6A0100976A0100B4
:10107000A16A0100AB6A0100B56A0100BF6A010004
:10108000C96A010099140100991401009914010022
:101090009914010099140100991401009914010098
:1010A0009BA00100A5A00100EFA00100F9A0010094
:1010B00003A10100AFA00100B9A001009914010033
:1010C0009914010099140100991401009914010068
:1010D0009914010099140100991401009914010058
:1010E000A937010099140100991401009914010015
:1010F0009914010099140100EDB60100F7B6010042
:101100009914010099140100991401009914010027
:101110009914010099140100991401009914010017
:101120009914010099140100991401009914010007
:1011300099140100991401009914010099140100F7
:1011400099140100991401009914010099140100E7
:1011500099140100991401009914010099140100D7
:1011600099140100991401009914010099140100C7
:101170009914010099140100D5820100DF82010059
:10118000E9820100F3820100FD820100991401004F
:1011900099140100078301001183010099140100D3
:1011A0001B8301002583010099140100991401009B
:1011B0002F8301003983010099140100438301004A
:1011C0004D8301009914010099140100198E01004A
:1011D000258E0100318E01003D8E01009914010021
:1011E000798E0100498E0100558E0100618E01004B
:1011F0006D8E010099140100958E0100B18E0100E1
:10120000BD8E0100C98E0100D58E01009914010028
:10121000118F0100E18E0100ED8E0100F98E0100B9
:10122000058F0100991401002D8F0100498F0100E5
:10123000558F0100618F01006D8F0100991401002D
:10124000A98F0100798F0100858F0100918F010026
:101250009D8F010099140100C58F0100E18F0100ED
:10126000ED8F0100F98F0100059001009914010034
:1012700041900100119001001D9001002990010092
:1012800035900100991401005D900100991401004E
:101290009914010099140100991401009914010096
:1012A0009914010099140100991401009914010086
:1012B0009914010099140100991401009914010076
:1012C0009914010099140100991401009914010066
:1012D0009914010099140100991401009914010056
:1012E0009914010099140100991401009914010046
:1012F0009914010099140100991401009914010036
:101300009914010099140100991401009914010025
:101310009914010099140100991401009914010015
:101320009914010099140100991401009914010005
:1013300099140100991401009914010099140100F5
:1013400099140100991401009914010099140100E5
:1013500099140100991401009914010099140100D5
:1013600099140100991401009914010099140100C5
:1013700099140100991401009914010099140100B5
:1013800099140100991401009914010099140100A5
:101390009914010099140100991401009914010095
:1013A0009914010099140100991401009914010085
:1013B0009914010099140100991401009914010075
:1013C0009914010099140100991401009914010065
:1013D0009914010099140100991401009914010055
:1013E0009914010099140100991401009914010045
:1013F000991401009914010099140100FFFFFFFFE7
:10140000FFFFFFFFFFFFFFFFFFFFFFFFFE7FFFFF6D
:1014100010B5054C237833B9044B13B10448AFF32E
:1014200000800123237010BD100000200000000088
:101430005440020008B5034B1BB103490348AFF306
:10144000008008BD0000000014000020544002008D
:1014500072B64FF000014FF000024FF000034FF062
:1014600000044FF000054FF000064FF00007B846AB
:10147000B946BA46BB46BC46044880470448854640
:101480000448804762B603F083F8FEE7BD4A0100D6
:1014900000F00120A1B70100FFF7FEBF81F000417D
:1014A00002E000BF83F0004330B54FEA41044FEA49
:1014B000430594EA050F08BF90EA020F1FBF54EAE4
:1014C000000C55EA020C7FEA645C7FEA655C00F080
:1014D000E2804FEA5454D4EB5555B8BF6D420CDD51
:1014E0002C4480EA020281EA030382EA000083EAD4
:1014F000010180EA020281EA0303362D88BF30BD74
:1015000011F0004F4FEA01314FF4801C4CEA1131C9
:1015100002D0404261EB410113F0004F4FEA033328
:101520004CEA133302D0524263EB430394EA050FB3
:1015300000F0A780A4F10104D5F1200E0DDB02FA22
:101540000EFC22FA05F2801841F1000103FA0EF2B6
:10155000801843FA05F359410EE0A5F120050EF17C
:10156000200E012A03FA0EFC28BF4CF0020C43FAAD
:1015700005F3C01851EBE37101F0004507D54FF0BA
:10158000000EDCF1000C7EEB00006EEB0101B1F50A
:10159000801F1BD3B1F5001F0CD349085FEA300050
:1015A0004FEA3C0C04F101044FEA445212F5800F5B
:1015B00080F09A80BCF1004F08BF5FEA500C50F1F8
:1015C000000041EB045141EA050130BD5FEA4C0CDB
:1015D000404141EB010111F4801FA4F10104E9D164
:1015E00091F0000F04BF01460020B1FA81F308BF5B
:1015F0002033A3F10B03B3F120020CDA0C3208DD27
:1016000002F1140CC2F10C0201FA0CF021FA02F101
:101610000CE002F11402D8BFC2F1200C01FA02F171
:1016200020FA0CFCDCBF41EA0C019040E41AA2BF96
:1016300001EB0451294330BD6FEA04041F3C1CDA5E
:101640000C340EDC04F11404C4F1200220FA04F07E
:1016500001FA02F340EA030021FA04F345EA030128
:1016600030BDC4F10C04C4F1200220FA02F001FAEA
:1016700004F340EA0300294630BD21FA04F029466C
:1016800030BD94F0000F83F4801306BF81F4801105
:101690000134013D4EE77FEA645C18BF7FEA655C78
:1016A00029D094EA050F08BF90EA020F05D054EA4A
:1016B000000C04BF1946104630BD91EA030F1EBF4F
:1016C0000021002030BD5FEA545C05D14000494153
:1016D00028BF41F0004130BD14F580043CBF01F546
:1016E000801130BD01F0004545F0FE4141F470012C
:1016F0004FF0000030BD7FEA645C1ABF1946104607
:101700007FEA655C1CBF0B46024650EA013406BF07
:1017100052EA033591EA030F41F4002130BD00BFC6
:1017200090F0000F04BF0021704730B54FF4806483
:1017300004F132044FF000054FF0000150E700BF04
:1017400090F0000F04BF0021704730B54FF4806463
:1017500004F1320410F0004548BF40424FF0000150
:101760003EE700BF42004FEAE2014FEA31014FEA93
:1017700002701FBF12F07F4393F07F4F81F06051E2
:10178000704732F07F4208BF704793F07F4F04BF2D
:1017900041F40021704730B54FF4607401F000450A
:1017A00021F000411CE700BF50EA010208BF70476A
:1017B00030B54FF000050AE050EA010208BF70475B
:1017C00030B511F0004502D5404261EB41014FF4C4
:1017D000806404F132045FEA915C3FF4D8AE4FF0CC
:1017E00003025FEADC0C18BF03325FEADC0C18BFAF
:1017F000033202EBDC02C2F1200300FA03FC20FA00
:1018000002F001FA03FE40EA0E0021FA02F114444C
:10181000BDE600BF70B54FF0FF0C4CF4E06C1CEA65
:1018200011541DBF1CEA135594EA0C0F95EA0C0FD6
:1018300000F0DEF82C4481EA030621EA4C5123EA49
:101840004C5350EA013518BF52EA033541F4801178
:1018500043F4801338D0A0FB02CE4FF00005E1FB2B
:1018600002E506F00042E0FB03E54FF00006E1FB75
:1018700003569CF0000F18BF4EF0010EA4F1FF04B8
:10188000B6F5007F64F5407404D25FEA4E0E6D41F8
:1018900046EB060642EAC62141EA55514FEAC52009
:1018A00040EA5E504FEACE2EB4F1FD0C88BFBCF585
:1018B000E06F1ED8BEF1004F08BF5FEA500E50F136
:1018C000000041EB045170BD06F0004646EA0101FC
:1018D00040EA020081EA0301B4EB5C04C2BFD4EB2E
:1018E0000C0541EA045170BD41F480114FF0000E27
:1018F000013C00F3AB8014F1360FDEBF002001F095
:10190000004170BDC4F10004203C35DA0C341BDC0E
:1019100004F11404C4F1200500FA05F320FA04F0E0
:1019200001FA05F240EA020001F0004221F0004114
:1019300010EBD37021FA04F642EB06015EEA430E87
:1019400008BF20EAD37070BDC4F10C04C4F12005B7
:1019500000FA04F320FA05F001FA04F240EA02006A
:1019600001F0004110EBD37041F100015EEA430E3B
:1019700008BF20EAD37070BDC4F1200500FA05F25B
:101980004EEA020E20FA04F301FA05F243EA0203DA
:1019900021FA04F001F0004121FA04F220EA0200E9
:1019A00000EBD3705EEA430E08BF20EAD37070BD2F
:1019B00094F0000F0FD101F00046400041EB01010F
:1019C00011F4801F08BF013CF7D041EA060195F0F1
:1019D000000F18BF704703F00046520043EB0303AB
:1019E00013F4801F08BF013DF7D043EA0603704798
:1019F00094EA0C0F0CEA135518BF95EA0C0F0CD0A3
:101A000050EA410618BF52EA4306D1D181EA0301E8
:101A100001F000414FF0000070BD50EA410606BFE2
:101A20001046194652EA430619D094EA0C0F02D127
:101A300050EA013613D195EA0C0F05D152EA03366C
:101A40001CBF104619460AD181EA030101F000418A
:101A500041F0FE4141F470014FF0000070BD41F0D3
:101A6000FE4141F4780170BD70B54FF0FF0C4CF4AD
:101A7000E06C1CEA11541DBF1CEA135594EA0C0FCC
:101A800095EA0C0F00F0A7F8A4EB050481EA030E19
:101A900052EA03354FEA013100F088804FEA033300
:101AA0004FF0805545EA131343EA12634FEA0222CE
:101AB00045EA111545EA10654FEA00260EF000418F
:101AC0009D4208BF964244F1FD0404F5407402D2E1
:101AD0005B084FEA3202B61A65EB03055B084FEA72
:101AE00032024FF480104FF4002CB6EB020E75EB6F
:101AF000030E22BFB61A754640EA0C005B084FEA97
:101B00003202B6EB020E75EB030E22BFB61A754613
:101B100040EA5C005B084FEA3202B6EB020E75EB5E
:101B2000030E22BFB61A754640EA9C005B084FEAD6
:101B30003202B6EB020E75EB030E22BFB61A7546E3
:101B400040EADC0055EA060E18D04FEA051545EAD2
:101B500016754FEA06164FEAC30343EA52734FEA7B
:101B6000C2025FEA1C1CC0D111F4801F0BD141EAF4
:101B700000014FF000004FF0004CB6E711F4801F59
:101B800004BF01430020B4F1FD0C88BFBCF5E06F39
:101B90003FF6AFAEB5EB030C04BFB6EB020C5FEA49
:101BA000500C50F1000041EB045170BD0EF0004E9E
:101BB0004EEA113114EB5C04C2BFD4EB0C0541EAD0
:101BC000045170BD41F480114FF0000E013C90E6CD
:101BD00045EA060E8DE60CEA135594EA0C0F08BF91
:101BE00095EA0C0F3FF43BAF94EA0C0F0AD150EA90
:101BF00001347FF434AF95EA0C0F7FF425AF104623
:101C000019462CE795EA0C0F06D152EA03353FF44A
:101C1000FDAE1046194622E750EA410618BF52EAC7
:101C200043067FF4C5AE50EA41047FF40DAF52EA9B
:101C300043057FF4EBAE12E74A0011D212F5001211
:101C400011D20DD56FF47873B3EB62520ED44FEA14
:101C5000C12343F0004343EA505323FA02F0704794
:101C60004FF00000704750EA013002D14FF0FF30D2
:101C700070474FF00000704753B94AB9002908BFB8
:101C800000281CBF4FF0FF314FF0FF3000F074B957
:101C9000ADF1080C6DE904CE00F006F8DDF804E0C3
:101CA000DDE9022304B070472DE9F047089E0446A1
:101CB0008846002B40F085808A42154648D9B2FA02
:101CC00082F24AB1C2F1200701FA02F320FA07F7C3
:101CD000954047EA030894404FEA154E230CB8FBA1
:101CE000FEF71FFA85FC0EFB178843EA084307FB43
:101CF0000CF1994209D9EB1807F1FF3080F0E3802D
:101D0000994240F2E080023F2B445B1AA4B2B3FB3D
:101D1000FEF00EFB103344EA034400FB0CFCA44528
:101D200009D92C1900F1FF3380F0CB80A44540F293
:101D3000C88002382C4440EA0740A4EB0C0400277A
:101D40001EB1D4400023C6E900433946BDE8F08700
:101D5000002A53D0B2FA82F2002A40F0B680491B22
:101D60004FEA154E1FFA85F80127B1FBFEFC230C44
:101D70000EFB1C1143EA014308FB0CF1994207D901
:101D8000EB180CF1FF3002D2994200F2EC8084464D
:101D9000591AA3B2B1FBFEF00EFB101443EA04443F
:101DA00008FB00F8A04507D92C1900F1FF3302D237
:101DB000A04500F2DC801846A4EB080440EA0C4081
:101DC000BEE78B4208D9002E78D00027C6E9000173
:101DD00038463946BDE8F087B3FA83F77FB98B42BE
:101DE00002D3824200F2BD80841A61EB030301201A
:101DF0009846002EA9D0C6E90048A6E7FFDEC7F145
:101E00002005BB4022FA05FC4CEA030C01FA07F45A
:101E100020FA05F821FA05F34FEA1C4E48EA0404BB
:101E2000B3FBFEF9210C0EFB19331FFA8CF841EAC3
:101E3000034309FB08FA9A4502FA07F200FA07F190
:101E40000BD91CEB030309F1FF3080F088809A4521
:101E500040F28580A9F102096344A3EB0A03A4B20E
:101E6000B3FBFEF00EFB103344EA034400FB08F81A
:101E7000A04508D91CEB040400F1FF336BD2A04548
:101E800069D90238644440EA0940A4EB0804A0FB85
:101E900002894C45C6464B4654D351D0002E69D0DA
:101EA000B1EB0E0264EB030404FA05F522FA07F322
:101EB000FC401D43C6E90054002746E7374630463C
:101EC00043E7184637E707461FE7C2F1200320FA29
:101ED00003F7954001FA02F021FA03F34FEA154E99
:101EE0003843010CB3FBFEF71FFA85F80EFB1733DE
:101EF00041EA034107FB08F38B4204FA02F407D9D5
:101F0000691807F1FF3C28D28B4226D9023F2944A9
:101F1000CB1A81B2B3FBFEF00EFB103341EA034152
:101F200000FB08F38B4207D9691800F1FF3C10D27F
:101F30008B420ED902382944C91A40EA074714E7F0
:101F40004145ABD2B8EB020E69EB0C0201381346E7
:101F5000A4E76046F0E7184695E76746D8E781466C
:101F60007BE7384645E7ACF1020C2B4410E702381A
:101F70002C4421E73746E8E6704700BF034613F8D4
:101F8000012B002AFBD1181A01387047000000000D
:101F900001F0FF01102A2BDB10F0070F08D010F81A
:101FA000013B013A8B422DD010F0070F42B3F6D11E
:101FB000F0B441EA012141EA014122F007047FF037
:101FC00000070023F0E80256083C85EA010586EA8E
:101FD000010685FA47F5A3FA87F586FA47F6A5FACA
:101FE00087F68EB9EED1F0BC01F0FF0102F00702D6
:101FF00032B110F8013B013A83EA010313B1F8D181
:102000000020704701387047002D06BF3546033861
:10201000073815F0010F07D1013015F4807F02BF9A
:10202000013015F4C03F0130F0BC0138704700BFEB
:102030007047704708B502F031FA08BD08B502488C
:1020400002F080FA08BD00BF802CFE1F08B50B68A7
:10205000B3F5FC6F00D008BD08464B7A302B08D092
:102060008B7A102B08D0222BF5D1054901F0DCFE2C
:10207000F1E702F059F8EEE701F0BAFEEBE700BF36
:10208000802CFE1F7047704738B50D46272808D8AA
:10209000044600EB4003094A02EB8303187A5828F0
:1020A00001D9284638BD02F0D5FC0028F9D004EB50
:1020B0004404024B03EB84046568F2E7780CFE1FCE
:1020C00008B501200AF036FB532101200AF0F6FA88
:1020D0000B4801F09BFD022002F0C2FA01215820BA
:1020E00009F0CAFE0121372009F0C6FE0021572061
:1020F00009F0C2FE0121512009F0BEFE08BD00BF5B
:10210000F02E020008B550B1012811D0012147205E
:1021100009F0B2FE0121412009F0AEFE07E00021E6
:10212000472009F0A9FE0121412009F0A5FE08BDC4
:102130000121472009F0A0FE0021412009F09CFE6A
:10214000F5E700002DE9F0410021372009F094FE69
:102150000F4C04F11C08002736253C26394628463A
:1021600009F08AFE6178304609F086FE0121284692
:1021700009F082FE02344445F0D10121372009F0F4
:102180007BFE0021572009F077FEBDE8F08100BFFB
:10219000580CFE1F030E03EB0063020202F47F02E1
:1021A0001344000A00F47F4018447047B2F5007FE2
:1021B0005CD22DE9F04F83B0D418B4F5007F41DC38
:1021C0005C1EA4B21F2C3DD802F0070E03EB0E04D8
:1021D000202C37DC4FF0000C6446640044F001040E
:1021E0000CF1010C1FFA8CF5AB42F6D80F46D5085E
:1021F00005F1010B05F1020A05F1030911F80B20A5
:1022000011F80A804FEA084808EB02284A5D90441A
:1022100011F8096008EB066820409DF83020012A7B
:1022200013D000FA0EF604FA0EF028EA0000064376
:102230007E55330A07F80B30330C07F80A30360E98
:1022400007F8096003B0BDE8F08FC3F12003A3EBEA
:102250000E0E1FFA8EF301939840FFF79BFF064680
:10226000019B04FA03F0FFF795FFDEE77047F0B437
:102270009DF81050B1F5007F54D28C18B4F5007F52
:1022800053DC541EA4B21F2C51D801F007041619B8
:10229000202E4EDCCE08012B20D081194F788B7870
:1022A0001B0403EB0723805D1844CB7800EB03602D
:1022B000E04000231C46640044F00104013399B25D
:1022C0009142F8D32040142D03D0113DEDB2012DE1
:1022D00029D8551E20FA05F51F231AE08419E37842
:1022E000805D03EB0060A37800EB0320637800EBD4
:1022F0000340C2F1200301F00701591ACBB2D840C4
:10230000D7E7012D4FEA440408BF44F00104013B24
:102310009BB2591C89B29142F3D86400002BF6D1CC
:10232000604000E00020F0BC70470020FBE7002088
:10233000F9E70020F7E7000008B5044B53F8203018
:1023400010221968586900F0F7FF08BDAC0EFE1F97
:1023500008B5044B53F8203010225968186900F072
:10236000EBFF08BDAC0EFE1F10B5A4B004461490E0
:102370000AF036FA0D4B53F824309A68694618690A
:1023800001F043F818B10AF02DFA24B010BD6946E7
:1023900013A809F053FC0028F5D1044B53F824305E
:1023A0000121186901F04BF8EDE700BFAC0EFE1FEC
:1023B00000B583B000238DF807308DF807309DF805
:1023C0000730DBB2012B0ED89DF80700FFF7CCFFDA
:1023D0009DF807300133DBB28DF807309DF80730E8
:1023E000DBB2012BF0D903B05DF804FB08B50B4656
:1023F00002680A60017A1A7A61F300021A72027A9C
:10240000C2F34002197A62F34101197290F849202F
:1024100083F8492090F84A2083F84A2090F84B200E
:1024200083F84B2090F84C2083F84C2090F84920FA
:1024300000F1090103F109000FF082FE08BD000060
:1024400008B5054B53F82030DA68586900F088FF6A
:10245000002818BF032008BDAC0EFE1F30B585B0A4
:1024600005460C460A7A0B6843EAC273009391F85A
:10247000490009F033FC8DF8040094F84B308DF8D6
:10248000053094F84C308DF8063094F8492004F16A
:10249000090102A80FF054FE064B53F825309A6844
:1024A0006946186900F05CFF002818BF032005B0DA
:1024B00030BD00BFAC0EFE1F2DE9F04F83B00746C4
:1024C0008946624B9B88002B00F092800024604D6F
:1024D000DFF8788101F1090A28E006EBC60305EB75
:1024E00083035B7F002B57D198F80C30002B67D00B
:1024F00099F8083013F0010F62D006EBC60305EB24
:1025000083035B6803F47F43B8F81020934257D1EC
:10251000D9F8003003F47F43B8F8122093424FD02B
:102520000134E4B2B8F80430A34261D9264604EB82
:10253000C40315F82330DBB2BB42F1D104EBC40372
:1025400005EB83035B7D002BEAD104EBC40305EBB1
:1025500083031B7ADBB299F8082002F001029A4249
:10256000DED104EBC40305EB83039969D9F800209D
:102570005B689A42B1D004EBC40305EB83039B690B
:10258000002BCDD004EBC40305EB83035B685A40FA
:1025900032EA0103C4D1A0E706EBC60B05EB8B0BB7
:1025A0009BF81C109BF81D20042300930023504629
:1025B000FFF75DFE9BF81E30DBB29842B0D193E787
:1025C00006EBC602224B03EB82039B7DDBB2172B8B
:1025D00027D0204A682303FB06231B7D13F0200F1E
:1025E00015D068211C4B01FB04314846FFF7FEFE65
:1025F00007EB8703194A02EBC3031B79184B1B68CF
:1026000013B149463846984703B0BDE8F08F06EB52
:10261000C6060F4B03EB8603987D4946FFF71EFF66
:10262000DFE74FF0680808FB04F00830094D03218C
:10263000284400F0E7FB08FB06531A7D42F0010234
:1026400002F0FD026FF382021A75CAE7882CFE1FA2
:102650008C2A02005C21FE1F7421FE1F142A020036
:10266000300000202DE9F04198B080460646224B0C
:1026700053F8203058690269002A3AD000241E4FCE
:102680002AE0009B23F000420492DB0F9DF8182003
:1026900063F300028DF818209DF8040009F0B2FAE7
:1026A00002468DF859009DF805308DF85B309DF895
:1026B00006308DF85C3002A90DF119000FF040FDD5
:1026C00004A94046FFF7F8FE0134A4B257F82630BB
:1026D00058690269944208D2DA68694600F06CFED3
:1026E00005460028CDD00428EED1284618B0BDE814
:1026F000F0810525F9E700BFAC0EFE1F394B9B8822
:10270000002B6ED02DE9F04F87B00024364D374FA7
:10271000344E23E09DF80F300093BDF80C30BDF827
:102720000A2059460498FFF741FD09F101095FFAB3
:1027300089F933884B450CD909EB49030AEB83032C
:1027400093E8070088E807009DF80830A342ECD121
:10275000E0E70134E4B2B388A3423FD904EBC403F9
:1027600005EB83031B6A002BF3D004EBC40305EBDA
:1027700083035B7D03F0FF09002BEAD1682303FB91
:1027800004731B7D13F0020FE3D1682303FB047372
:102790000322996805A800F045FB04EBC40305EB90
:1027A00083031A6A059B9A42D3D8682303FB0478F3
:1027B00098F8143043F006036FF3000388F81430E0
:1027C0003388002BC5D04FF0680B0BFB047B0BF15B
:1027D000210BDFF81CA00DF10808ADE707B0BDE83C
:1027E000F08F7047882CFE1F8C2A02005C21FE1F90
:1027F000B02A020038B5084B9B784BB10024064D37
:10280000E0B2FFF72FFF0134AA78E3B29A42F7D87B
:10281000FFF774FF38BD00BF882CFE1F2DE9F04F75
:1028200083B08D4B9B88002B00F011818B4D0024D1
:102830008B4EA846884F56E003230A2229690DF1E2
:10284000070000F00BFB00286AD19DF80730012B30
:1028500066D1032105F1100000F0D4FA04EBC403A3
:1028600006EB8303DB684FF0010B62E01FFA89F28D
:10287000002A00F081809AF821109AF800309942DD
:102880007DD16823754903FB0413013A13FA82F0E2
:10289000834271D093F8222013F8011F9142F7D0A0
:1028A0006DE023F0FF03BA7B1343CAF818307FE0D2
:1028B00001238AF8633004EBC40306EB83035B7ADD
:1028C0008AF8643004EBC40316F8230005F11801FC
:1028D000FFF7C4FD002800F09A8001346835BB88FA
:1028E000A34240F2B48004EBC40306EB83035B7D98
:1028F000002BF2D0682303FB04831B7D13F0100F21
:10290000EBD104EBC40306EB8303187D09F07AF9DD
:102910008146682303FB04831B7D13F0080F8BD1D2
:1029200004EBC40306EB8303DB68002BD5D04FF028
:10293000000BAA4604EBC40306EB8303DA68032307
:10294000E9680DF1070000F089FA18B99DF8073021
:10295000012B14D004EBC40306EB83031A69032391
:10296000DAF80C100DF1070000F078FA20B99DF8A4
:102970000730012B3FF47AAFBBF1000FADD004EB71
:10298000C40306EB83035B68CAF818303A7B7AB15C
:1029900004EBC40206EB8202127A4AB104EBC402D1
:1029A00006EB82025268D2B2797B8A423FF479AF59
:1029B00004EBC40206EB8203187A682303FB04834A
:1029C00093F8201060F3000183F820108AF86190DA
:1029D00016F8223003EB8303224A02EBC30393F879
:1029E0002730002B3FF46EAF04EBC40306EB8303E8
:1029F0001B7ADBB2022B3FF45BAF04EBC40306EBA4
:102A000083031B7ADBB2032B7FF45CAF50E76823B0
:102A100003FB04831A7D6FF3C3021A751FFA89F250
:102A20007AB1682101FB04F10C48431801300144DC
:102A3000013A11FA82F193F8212003F8012B8B421D
:102A4000F9D1032105F10C0000F0DCF945E7FFF7AF
:102A5000AFFC03B0BDE8F08F882CFE1F5C21FE1F89
:102A60008C2A0200142A020070B594B006461C4657
:102A70000091C90F9DF8083061F300038DF808300C
:102A8000104609F0BFF805468DF849008DF84B4017
:102A90009DF860308DF84C30402200210DF1090086
:102AA0000FF05CFB2A4619990DF109000FF048FB65
:102AB000002C0CBF082340239DF849209A4202D9DC
:102AC000022014B070BD69463079FFF7C7FCF8E703
:102AD000014B1860704700BF3000002084B070B513
:102AE00004AC84E80F0000238DF81C308DF81D30F5
:102AF0009DF8543005939DF85530012B03D0BDE867
:102B0000704004B070479DF866300B939DF86730B5
:102B10000C939DF865300D939DF869300A939DF8EC
:102B200064300E939DF87B30012B24D00C248DF85B
:102B30001C409DF857001A494B1C1D3100250126E9
:102B400013F8012C824204BF1C78354602338B42B5
:102B5000F6D10DB18DF81C409DF81C1004A808F0AA
:102B6000E1FF9DF81D1004A809F01EF815A904A89E
:102B700000F0C6FBC3E79DF8773010939DF87830DE
:102B800011939DF8763012939DF87A300F939DF84B
:102B9000753013930D238DF81C308DF81D30DBE755
:102BA000FC2E0200044B00221A80022199709A80A8
:102BB0009A711A819A727047882CFE1F30B593B0B3
:102BC00004460D464822002168460FF0C7FA064821
:102BD00023011A1900EB820295606946104608F03D
:102BE00019FF13B030BD00BF002DFE1F00230B6086
:102BF00002280CD810B50C4600EB00104422044902
:102C000001EB800120460FF09BFA246010BD704755
:102C1000002DFE1F10B5144C21460020FFF7E6FFE3
:102C2000124B1A7862605B78DBB2012B0ED0104C2D
:102C300021460120FFF7DAFF0C4B93F82820626051
:102C400093F82930DBB2012B07D010BD0020FFF72D
:102C50007FFB0020FFF770FBE9E70120FFF778FB1F
:102C60000120FFF769FBF0E7002DFE1F142A020088
:102C7000442DFE1F70B584B005460E461446002351
:102C800003931378022B04D16378022B0FD104B085
:102C900070BD0123836013788DF80C300B680193AD
:102CA0008B68DB43029301A908F0FEFEECE70223E8
:102CB000AB6063788DF80C3073680193F368DB4385
:102CC000029301A9284608F0EFFEE0E72DE9F04F56
:102CD00085B083460024ADF80C40484D0746484E69
:102CE000A04623E004EB840306EBC303DB78DBB2EE
:102CF0001E2B36D9012385F8403032E0C1F804801C
:102D0000C1F8008040F2FF738B606FF06043CB60CE
:102D10008DF80C8001238DF80D3003AA0198FFF780
:102D2000A9FF013444351437022C60D0A24604EBCD
:102D3000840206EBC20316F8322001956A609A7885
:102D400085F8412085F840805B78DBB2012BE8D123
:102D500004EB840306EBC30393F82730DBB2012BAB
:102D6000C0D04FEA8A0909EB0A0316F8331042462D
:102D7000019808F0E3FD3946D14406EBC90999F8FA
:102D80000430DBB2012BB9D0BBF1000FB6D03B7CD5
:102D9000042BB3D0032B1AD8DFE803F002070D137E
:102DA0008DF80C808DF80D80B7E78DF80C8001232D
:102DB0008DF80D30B1E701238DF80C308DF80D3012
:102DC000ABE702238DF80C308DF80D30A5E7C7F87E
:102DD0000480C7F8008040F2FF73BB606FF060436F
:102DE000FB608DF80C8001238DF80D3095E70621EE
:102DF000002000F023F905B0BDE8F08F002DFE1F84
:102E0000142A020000B583B000238DF8073009F0C2
:102E1000E7FA10B101238DF807309DF8070003B0E1
:102E20005DF804FB30B583B004460D4603238DF8EE
:102E30000730002300931146684609F0D1FA30B1FB
:102E400001238DF807309DF8070003B030BD0099CD
:102E5000491B216000238DF80730F4E730B583B0BB
:102E60000446154603228DF80720002200921A46D8
:102E70006846FFF7D7FF8DF807009DF807302BB99C
:102E8000009BAB422CBF0123002323709DF8070059
:102E900003B030BDF0B49DF81070012A75D9032F2E
:102EA00077D802F10045013D30F915409C423ADAED
:102EB000023A96B231F91520022F24D0E41A012FDC
:102EC00053D07300C5180B44B3F9023031F9161012
:102ED0005B1A04FB03F4B5F9023030F91600181A36
:102EE00094FBF0F4101B2C4B9842B8BF184647F6E1
:102EF000FF739842A8BF1846023FFFB2012F45D882
:102F000020EAE07042E030F9162031F91600101A7C
:102F1000181A214B9842B8BF184647F6FF739842DB
:102F2000A8BF1846ECE7861CB0F90240A342C8BF10
:102F3000012514DD0135ADB2AA4212D036F9024F97
:102F4000A342F7DC6E1EB6B231F91520B0F900507D
:102F50009D42C4BFB1F900202C46E41AAFE7012519
:102F6000F0E7002214461646A9E7B0F900509D424A
:102F7000A7DDB1F90000084B9842B8BF184647F6E4
:102F8000FF739842A8BF184600E0002000B2F0BCD2
:102F900070470020FAE700BF0080FFFF08B50F4B25
:102FA00020F00040586083F8481051B1531E0C487F
:102FB000013952FA81F213F8011F00F8011F934200
:102FC000F9D1084B187800231A46074900F204503B
:102FD00009F036FC003018BF012008BD3800002081
:102FE0003F0000203400002000000D0508B500233C
:102FF0001A46194640F6090009F022FC003018BFB5
:10300000012008BD08B10320704708B50B6803F123
:10301000080293F848105868FFF7C0FF002008BD69
:1030200008B509F0D9FC002008BD08B500F1080278
:1030300001790068FFF7B2FF08BD00002DE9F041FB
:1030400084B005460E460BF027F880B937480BF0E0
:10305000A5F90378364A1370022B1ED8344B187822
:1030600001281FD90124204604B0BDE8F0810BF0EF
:1030700013F8012803D00BF00FF80E2803D1CB2052
:103080000BF08CF9E5E70BF007F80F28F7D00BF001
:1030900003F81028F3D00020DBE74F2116200EF0B4
:1030A00047FFDBE700EB8003224A02EBC3035C78B7
:1030B000E4B2012C01D00124D5E713468200111897
:1030C00003EBC10191F8278018F1000818BF4FF0F9
:1030D0000108CF78FFB21E2F94BF002701278DF87B
:1030E00008508DF809808DF80A70134B039302ABDA
:1030F00040F20552114900F2045009F0A1FB0028EA
:10310000B1D18DF804608DF805808DF80670084BFC
:10311000187801AB40F20652094900F2045009F058
:103120008FFB041C18BF01249DE700BFEE009D002B
:1031300034000020142A02003800002005050E0586
:1031400006050F0510B5A1F12003DBB2072B17D937
:103150000C46A1F12803DBB2062B19D9A1F12F03EC
:10316000DBB2052B16D9A1F13503DBB2042B13D941
:10317000A1F13A03DBB2032B8CBF0C46012400E023
:103180000524404B1A7843689A4207D0022010BDAC
:103190000424F6E70324F4E70224F2E70AF07CFFB4
:1031A00098B9A3B2DA4303EB02239BB21A0292B29C
:1031B00042EA13224FF0021133480BF07FF9B0FAC4
:1031C00080F0400920BB0120E1E70AF065FF0128FB
:1031D00003D00AF061FF0E2810D1A3B2DA4303EB4B
:1031E00002239BB21A0292B242EA13220221D02099
:1031F0000BF064F9B0FA80F04009E3E70AF04CFF05
:103200000F28EAD00AF048FF1028E6D00020D9E7BE
:103210000AF042FF98B9A4B2E34304EB0324A4B23A
:10322000220292B242EA14224FF0021117480BF028
:1032300045F9B0FA80F0400980F00100A7E70AF0F4
:103240002BFF012803D00AF027FF0E2810D1A4B2CB
:10325000E34304EB0324A4B2220292B242EA142212
:103260000221D2200BF02AF9B0FA80F04009E3E7FE
:103270000AF012FF0F28EAD00AF00EFF1028E6D05D
:103280000020D9E734000020AC005B00AE005D00F8
:1032900010B58AB0184B1C7843689C4202D00220BB
:1032A0000AB010BD0B7BADF81330CB7A8DF815301A
:1032B0000B7C8DF816304B7B8DF817308B7B8DF89F
:1032C0001830137BADF81C30D37A8DF81E30137C88
:1032D0008DF81F30537B8DF82030937B8DF8213093
:1032E00001AB4FF40062054940F6090009F0A8FA65
:1032F000003018BF0120D3E7340000200008180870
:1033000038B505460C46C9781D2902D8FFF71AFFC3
:1033100038BD01F091FB212809D9E3781F2BF7D0A4
:1033200004F11602611D2846FFF7B2FFF0E7E178CD
:103330002846FFF707FFEBE7034658B161B16AB1D2
:103340000020186019615860986018755875987554
:10335000DA607047012070470120704701207047F4
:10336000F8B504460F46164609F03AFA257D0DBB1E
:1033700001232375236801332269934206D903256B
:103380000023237509F02EFA2846F8BDE36860682B
:103390001A46394600FB03600EF0D2FE6368013323
:1033A00063602269934224BF002363602368013372
:1033B0002360E5E70225E5E7F8B504460E46174623
:1033C00009F00EFA657DF5B901236375236833B9F9
:1033D00004250023637509F005FA2846F8BDE36863
:1033E000A1681A4601FB037130460EF0A9FEA368DE
:1033F0000133A3602269934224BF0023A3602368A2
:10340000013B2360E5E70225E5E770B5457DA5B9F9
:1034100016460B46044601224275026822B904256D
:1034200000236375284670BDC16880680A4600FBAA
:10343000016118460EF084FEF2E70225F2E738B586
:1034400004460D4609F0CCF92268AA420FD30123A5
:103450006375A3685B1906D22169994298BF5B1A0C
:10346000A360551B2560002363751C4600E0012402
:1034700009F0B8F9204638BD2DE9F04F87B0604C0F
:103480002146002007F024FF002007F059FF2146C5
:10349000012007F01DFF012007F052FF00230493D5
:1034A000059301228DF81420029303930093019356
:1034B000544C04F548774FF0440A4FF059099846A8
:1034C0001FE0514648460EF033FD23E006AB03EB08
:1034D000850545F818BC11E0CDF810804FF0010BC0
:1034E0008DF815B08DF8168004AA3146284607F0ED
:1034F00051FF06AB03EB850545F818BC1434BC42FC
:103500002ED0A346257806AB03EB850353F8106C49
:10351000032ED6D89BF80C30002BEFD106AB03EB73
:10352000850353F818BCBBF1000FD5D0CDF810B00F
:103530008DF8158001238DF8163004AA31462846EF
:1035400007F028FF0BF1010BBBF1070FBED906AB4B
:1035500003EB850545F8188C013645F8106CCDE76E
:103560004FF47A61002007F009FF00231A4619463C
:10357000184607F031FF4FF47A73002201211046FC
:1035800007F02AFF4FF47A61012007F0F7FE0023CD
:103590001A461946012007F01FFF4FF47A730022E4
:1035A0000121084607F018FF4FF4FA6300220221B8
:1035B000104607F011FF40F6B833002203211046F1
:1035C00007F00AFF4FF4FA6300220221012007F0FE
:1035D00003FF40F6B83300220321012007F0FCFE70
:1035E000002007F0C1FE002007F0B4FE012007F024
:1035F000BBFE012007F0AEFE07B0BDE8F08F00BFB4
:1036000060350200BC2A02002DE9F04F85B0484C1D
:103610002146002001F0C6FA2146012001F0C2FA3D
:103620004FF408700AF0BAFE028846F6B3539A4285
:1036300005D100230393DFF808914A460AE00020F1
:1036400001F0AEFB012001F0ABFBF2E701331432D5
:10365000282B09D0117B0029F8D1117804A800EBA0
:10366000410121F8043CF1E7002502954C46DFF8C2
:10367000D480304E2F4621E04B46002203E0013239
:103680001433282A0ED05FFA82FE19788142F6D1CF
:103690009AF801B059788B45F1D1197B0029EED108
:1036A00005F806E09AF80D3098F800209A4238BFE5
:1036B00088F8003001351434282D24D0A246207813
:1036C000237B002BD8D16378ADF806308DF80470D9
:1036D00004AB03EB400333F8042CABB29A4204BFB3
:1036E00001238DF8043004AB03EB400B3BF808AC2E
:1036F0005FFA8AF1A95501AA01F018FB0AF1010A43
:103700002BF808ACD6E700220B49272006F04EF82C
:1037100000220A49282006F049F8FFF7ADFE2720CD
:1037200006F05CF8282006F059F805B0BDE8F08FE7
:1037300024330200CC2DFE1FA9370100B53701004C
:10374000BC2A0200980000202DE9F84381460E466D
:10375000114C0025DFF84C80104F03E00135143484
:10376000282D0DD014F80C3CB342F7D12378002B50
:10377000F4D108EB4502795D304601F005FBEDE739
:10378000484607F0E7FD064A52F82630013342F872
:103790002630BDE8F88300BFC82A0200CC2DFE1FEA
:1037A000242FFE1FF42DFE1F08B500210846FFF749
:1037B000CBFF08BD08B501210846FFF7C5FF08BDCE
:1037C00038B505460C46084606F014F8034B53F886
:1037D0002550204606F002F8284638BD242FFE1F4B
:1037E00008B500EB8002034B03EB82035968FEF738
:1037F0004BFC08BDBC2A02002DE9F0410446884676
:1038000016461D461946FFF7DBFF3368834201D198
:10381000BDE8F0810746012388F80030284605F00E
:10382000E9FF114A0023DFF84CE0104803E00133C0
:103830001432282B0DD012F80C1CA142F7D11178AC
:103840000029F4D103EB830130F813C02EF811C026
:10385000EDE7074A52F82430013342F82430284675
:1038600005F0BCFF3760D3E7C82A0200F42DFE1F25
:103870008C0000202C2FFE1F2DE9F04F89B0039003
:10388000029100208DF81F008DF81E00634D272344
:103890002A460DF11F01FFF7AFFF614C2823224696
:1038A0000DF11E010120FFF7A7FF2A685D4B1B6881
:1038B000D31A049322685C4B1B68D31A05939DF8B6
:1038C0001F30012B27D09DF81E30012B23D0049BE5
:1038D0000F2B1DD9059B0F2B1AD9504B1A68514B32
:1038E0001A604F4B1A68504B1A6003990B780133DA
:1038F000DBB20B704D4A12789A4205D200230B704E
:103900004B4A136801331360039B1878FEF7FAFBE8
:1039100009B0BDE8F08F474C474F484DDFF82C9178
:1039200004F5487B1EE02B886B802E46B5F802809C
:10393000029B23B192F810A0BAF1000F2AD132896C
:1039400057F8043F9B1A43443B603D4AA2FB0338AF
:103950004FEA1818A6F8088014340A3509F101094D
:103960005C45B4D02246237B002BDCD0039B197826
:10397000637B9942D9D1049B0F2BD6D9059B0F2B82
:10398000D3D999F8003003EB83032C4931F8133075
:103990006B80CAE7D08900F222200AF0FFFC78B1E0
:1039A000B0F90030B3F1FF3F0AD0AAF1030ABAF12F
:1039B000070F30D8DFE80AF0072F2F2F122F1B1B1D
:1039C0000023F380BBE703220092B5F90230811D8A
:1039D000FFF760FAE880B6F80680B0E703220092AD
:1039E000B5F90230811DFFF755FAE880F3E76A88E0
:1039F00003FB02F3134AA2FB0323B0F9042012498C
:103A000081FB0201D217C2EBA11202EB934323EA1E
:103A1000E373EB80DFE70023EB80DCE7840000202A
:103A2000880000209C000020A000002098000020BA
:103A300094000020BC2A0200802EFE1F2C2FFE1FA7
:103A4000C94216B283DE1B43D34D6210CC2DFE1F3C
:103A500070B504460D46094B1B785BB1084B1B68DB
:103A60003BB9074E29462046FFF706FF3368002B77
:103A7000F8D070BDFFF700FFFBE700BF9800002003
:103A800094000020F0B593B004460D4616461F463C
:103A900000EB00121C4B03EB82039E6003F062FFFD
:103AA0001A4B18420FD01A4B03EBC402506003218B
:103AB000104608F095FC85B1042D02D12046FEF792
:103AC00053FC13B0F0BD124800EBC40300225A604F
:103AD0000321184608F084FCEDE739463046FFF72D
:103AE00091FA0328EDD104EB04106946064B03EB71
:103AF000800007F08FFF69462046FEF7A1FC68466C
:103B0000FFF793FADDE700BF002DFE1F00FC200049
:103B1000BC30FE1F0A2900D070472DE9F04184B067
:103B2000044603F01FFF06462D4B184202D104B095
:103B3000BDE8F0812B4800EBC4004660032108F08B
:103B40004FFC16F0400F04D116F0080F32D00025BC
:103B500020E0254B03EB04139B681B68042BF3D96F
:103B60000425214B03EB041805E00135D8F8083093
:103B70001B689D42E8D2EFB23946204603F0E0FED2
:103B80000028F2D03946204603F0F4FEEDE7013577
:103B9000032D0FD0EFB23946204603F0D1FE0028A6
:103BA000F5D03946204603F0E5FE29462046FFF7CA
:103BB00005F8ECE70D4B93E8070004AB03E90700B9
:103BC00003EB840050F80C4C204604F021F916F465
:103BD000001FACD0236A43F400132362A7E700BFA1
:103BE00000FC2000BC30FE1F1410FE1FA0290200A4
:103BF000002343618361C3610362042280F82420AF
:103C0000036043608360C360027470472DE9F04F26
:103C1000A5B081466C4B1B783BB96C4D00246C4EB3
:103C2000DFF8B0B1DFF8B0A177E0674B00221A707F
:103C3000FEF7B8FFFEF7EEFF1AA8FFF7D9FF1AA8A4
:103C4000FFF744F8614F624C0DAE04F1200C35468D
:103C500020686168A268E3680FC510342E46644589
:103C6000F5D12068616803C66C4607F110050FCDD9
:103C70000FC40FCD0FC40FCD0FC42B68236097E87E
:103C80000F00FEF72BFFA5F14007514B03F128046D
:103C90000DAE03F1480C354620686168A268E36800
:103CA0000FC510342E466445F5D12068616803C6FF
:103CB0006C4607F154050FCD0FC40FCD0FC40FCDC7
:103CC0000FC42B68236007F144030FCBFEF706FFF8
:103CD000A3E7A3001993234416F83330012139F8E0
:103CE000230008F0C9F8199A904416F8383009EB07
:103CF00083030121588808F0BFF8C7F810B00021ED
:103D0000384607F0F9FEC7F814A00021384607F03E
:103D1000FEFE01344435022C53D0A04604EB84034C
:103D200006EBC30216F833302F466B605378DBB2D4
:103D3000012BEED104EB840316F8333039F823302D
:103D4000592BDAD004EB840316F8333009EB8303E4
:103D50005B88592BD1D004EB840316F83330DBB2E7
:103D6000012B19D05AB2002AB3D0022BC5D1A3001F
:103D70001993234416F83330012139F8230008F051
:103D80007BF8199A904416F8383009EB8303012127
:103D9000588808F071F8B0E7A3001993234416F887
:103DA0003330012139F8230008F066F8199A90445D
:103DB00016F8383009EB83030121588808F05CF8C5
:103DC0009BE725B0BDE8F08FB80EFE1F002DFE1F4B
:103DD000142A0200853A0100153B010008B50B4684
:103DE0000246024918460EF0C1F908BD182F02001C
:103DF00010B588B055230793E0230693012305935C
:103E00001E23049300240394C37A02935023019346
:103E100006230093082322464FF4FD61204600F05C
:103E2000C3FC08B010BD0000F0B58BB005460A46D3
:103E3000C37A112B2BD0F42B6FD0062B00F08C8083
:103E4000F12B27D1037B873B1E2B46D8DFE813F0ED
:103E5000D4004500EE004500450045004500450002
:103E60004500450006014500450045004500450068
:103E70002001450045004500450045004500A100E2
:103E8000450045004500BB00390145005101037B59
:103E9000F02B24D05524079406940594049403949D
:103EA000AB7A02937F27019703260096082300220E
:103EB0004FF4FD61104600F077FC079406940594DA
:103EC00004940394AB7A029301970096082300228E
:103ED0004FF4FD61104600F067FC0BB0F0BD09A97E
:103EE000B2F90200FFF77AFF5523079306939DF876
:103EF000253005939DF824300493F0230393112378
:103F000002936223019305230093082300224FF4B8
:103F1000FD61104600F048FCDFE7037B492BB9D177
:103F200009A9B2F90400FFF759FF55230793069337
:103F300005939DF82430049349230393F4230293BB
:103F40006223019304230093082300224FF4FD61B0
:103F5000104600F029FCC0E7037B002B9AD14023D8
:103F600007931D230693012305930024049406233D
:103F70000393622302930D230193102300930823DC
:103F800022464FF4FD61204600F00EFC654B1C807C
:103F9000A3E75F23079356230693452305939E24A7
:103FA0000494F1230393622302931D2301931023AE
:103FB0000093082300224FF4FD61104600F0F4FB4B
:103FC000584B1C8089E732230793302306930593CF
:103FD000A2240494F12303936223029309230193FF
:103FE00010230093082300224FF4FD61104600F0D7
:103FF000DBFB4C4B1C8070E745230793342306936F
:104000003023059387240494F123039362230293BE
:104010000E23019310230093082300224FF4FD6127
:10402000104600F0C1FB3F4B1C8056E7302307933E
:10403000322306933823059339230493892303936A
:10404000F1230293622301930323009308230022A8
:104050004FF4FD61104600F0A7FB3EE745230793B0
:10406000342306933023059391240494F12303937E
:10407000622302930E23019310230093082300224E
:104080004FF4FD61104600F08FFB264B1C8024E7A7
:10409000342307932E230693312305939724049406
:1040A000F1230393622302931023019300930823C7
:1040B00000224FF4FD61104600F076FB194B1C8086
:1040C0000BE75523079330230693322305934823A8
:1040D0000493A3230393F123029362230193062302
:1040E0000093082300224FF4FD61104600F05CFBB2
:1040F000F3E600200790069080230593A5240494FE
:10410000F123039362230293092301931023009365
:10411000082302464FF4FD6100F046FB014B1C8072
:10412000DBE600BFA4000020F0B589B0994B1B88E6
:10413000972B00F0EA8009D8872B77D0912B00F0DD
:10414000A180002B00F00D8109B0F0BDA22B56D04C
:10415000A52B00F0C2809E2BF6D146230793542353
:10416000069334260596312704974D230393432362
:1041700002934525019521230093082300224FF443
:10418000FD61104600F010FB07950696302405945B
:104190000497039702945323019322230093082347
:1041A00000224FF4FD61104600F0FEFA4123079310
:1041B00006963223059304943623039302943923FD
:1041C000019323230093082300224FF4FD6110463E
:1041D00000F0EAFA5523079306930593049303939B
:1041E00000240294019524230093082322464FF4CF
:1041F000FD61204600F0D8FA664B1C80A4E75523E9
:104200000793069305930493342303933023029377
:10421000019321230093082300224FF4FD611046EF
:1042200000F0C2FA5B4B00221A808DE7412307930E
:1042300034230693322305933023049336220392CA
:1042400002933923019321230093082300224FF482
:10425000FD61104600F0A8FA5523079306930593D5
:10426000049303930293452301932223009308238D
:1042700000224FF4FD61104600F096FA454B0022F3
:104280001A8061E74323079339230693302205926E
:10429000332104913721039102920193212300934A
:1042A000082300224FF4FD61104600F07DFA5523EB
:1042B0000793069305930493039302934723019373
:1042C00022230093082300224FF4FD61104600F0E2
:1042D0006BFA304B00221A8036E75523079306937A
:1042E0000593049362230393EF2302930623019320
:1042F00021230093082300224FF4FD61104600F0B3
:1043000053FA244B00221A801EE7682307932024C7
:10431000069449230593532304934623039354237C
:104320000293019421230093082300224FF4FD619E
:10433000104600F039FA552307930693059304932A
:1043400003940294792301932223009308230022EB
:104350004FF4FD61104600F027FA0E4B00221A8040
:10436000F2E6082307933022069205930522049271
:10437000642203926322029212220192212200926D
:1043800000224FF4FD61104600F00EFA014B0022AE
:104390001A80D9E6A40000202DE9F0410746154D0A
:1043A0000024154EA04603E001341035082C1FD020
:1043B00004EB44039B5DBB42F6D12A88002AF3D06C
:1043C000AB8801339BB2AB8069880131B3EB610FDD
:1043D000EADBA5F80480AB7A5B425BB2AB7213FBFD
:1043E00002F2E988114489B2A0B207F0C9FEDBE706
:1043F000BDE8F081D430FE1FC02E020008B50020B9
:10440000FFF7CAFF4FF40071002004F07FF808BDE9
:1044100008B50120FFF7C0FF4FF40071012004F040
:1044200075F808BD08B50220FFF7B6FF4FF400711C
:10443000022004F06BF808BD08B50320FFF7ACFFBD
:104440004FF40071032004F061F808BD08B50420A2
:10445000FFF7A2FF4FF40071042004F057F808BDE5
:1044600008B50520FFF798FF4FF40071052004F010
:104470004DF808BD08B50620FFF78EFF4FF4007118
:10448000062004F043F808BD08B50720FFF784FFB5
:104490004FF40071072004F039F808BD034B0822DF
:1044A0001A80034A5A60034A9A6070477031FE1FAF
:1044B000BC0EFE1FCC0EFE1FF0B54568068806F147
:1044C0000043013B35F913408C420ADBB5F900305B
:1044D0008B420CDC013E002ED8BF012006DD0023FC
:1044E0001AE0816831F9133013800120F0BD836830
:1044F000B3F9003013800120F8E7091B03FB01F337
:10450000ACEB040493FBF4F4231813800020EDE7D4
:1045100001339BB2B34213DA5F0035F913408C428A
:10452000F6DC07F1020E35F90EC08C45F0DB83682E
:10453000D85F33F90E301B1ADFD110800120D5E788
:104540000120D3E710B50446022000F00DF9221D2A
:1045500001B20248FFF7B0FF10BD00BF7031FE1F6F
:104560007047704700B583B002230093044B054A9F
:104570000549064802F024F903B05DF804FB00BFCA
:10458000EC340200F4340200E83402009C33FE1FD5
:10459000F0B583B000258DF807502B462A4A01213B
:1045A0002A4801F0DFFE2946284601F0E9FE59209D
:1045B00007F0C6FBFEF71AFDFFF7D4FF07F00AFF6E
:1045C000009507F0BDFEFFF71FF8082007F0B0FCCC
:1045D0000F2007F065FD07F0BBF8FFF7C1FFFDF7FF
:1045E0006FFD1B4807F0F0FE1A48FEF771FA012133
:1045F0000DF10700FFF72CFAFDF71CFDFDF718FD84
:10460000154F164E01E0FEF709F9384608F0A0F8FC
:104610000321684607F0E4FEFEF702FD01210DF1DB
:104620000700FFF729F9FEF7E5F8FFF79AFFFDF716
:1046300089FD009C621B33889A42E4D3FDF7FEFC9F
:10464000FDF7F7FC2546DEE7580400204410FE1F66
:10465000872001004D20010001000080740CFE1F26
:10466000032801D904207047F8B504460B4E4700D3
:104670003D1806EBC5052979284607F01BFE6B6936
:104680002A69E968284607F0F3FD0122044921441C
:10469000284607F0E1FD0020F8BD00BFDC0EFE1F3C
:1046A000A800002070477047F8B50446032A15D8C3
:1046B000DFE802F002151E271B4F1C4D4600331881
:1046C00005EBC303395C1879FDF7DCFC264405EBE8
:1046D000C60501223919287906F006FAF8BD00EB63
:1046E0004004124B03EBC4042079FFF7DBFFF5E72E
:1046F00000EB40040D4B03EBC4042079FFF7D3FF1C
:10470000ECE70B8E9BB2002BE8D0094B53F820400E
:104710000849204606F09FFC0028DFD10122054908
:10472000204606F060FCD9E7A8000020DC0EFE1F42
:10473000682F02001500030008B513460A4601461B
:104740000020FFF7B1FF08BD08B513460A46014631
:104750000120FFF7A9FF08BD08B513460A46014628
:104760000220FFF7A1FF08BD282817D838B500EBB5
:1047700080030B4A02EB83039D680DB9002038BD0E
:1047800000EB8002074B03EB42035C88FFF728F83D
:1047900000FB04F0B0FBF5F080B2F0E700207047BA
:1047A000BC2A02002C2FFE1F30B585B09DF820409A
:1047B0008DF808409DF824408DF809409DF8284068
:1047C0008DF80A409DF82C408DF80B409DF8304044
:1047D0008DF80C409DF834408DF80D409DF8384020
:1047E0008DF80E409DF83C408DF80F4000EB001511
:1047F000104C54F82540C4B11D46144621F0004128
:1048000000EB001002AB0193002300932A4641EA1B
:10481000C471084C04EB8000FEF726F9034628B16A
:1048200002280CBF0F23082300E00823184605B018
:1048300030BD00BF002DFE1F08B5072800F2EE8036
:10484000DFE800F004203E5B7895B2CF09F024FC4D
:1048500010B909F0A3FD08BD09F01EFC012803D022
:1048600009F01AFC0E2803D1002009F097FDF2E7A9
:1048700009F012FC0F28F7D009F00EFC1028F3D035
:104880000020E8E709F008FC20B94FF0021009F019
:1048900085FDE0E709F000FC012803D009F0FCFBEE
:1048A0000E2803D1022009F079FDD4E709F0F4FBCA
:1048B0000F28F7D009F0F0FB1028F3D00020CAE74A
:1048C00009F0EAFB18B9564809F068FDC3E709F09A
:1048D000E3FB012803D009F0DFFB0E2803D17D2084
:1048E00009F05CFDB7E709F0D7FB0F28F7D009F016
:1048F000D3FB1028F3D00020ADE709F0CDFB18B9A9
:10490000484809F04BFDA6E709F0C6FB012803D093
:1049100009F0C2FB0E2803D1952009F03FFD9AE76C
:1049200009F0BAFB0F28F7D009F0B6FB1028F3D036
:10493000002090E709F0B0FB18B93B4809F02EFDC4
:1049400089E709F0A9FB012803D009F0A5FB0E288F
:1049500003D1052009F022FD7DE709F09DFB0F281A
:10496000F7D009F099FB1028F3D0002073E709F085
:1049700093FB18B92D4809F011FD6CE709F08CFB89
:10498000012803D009F088FB0E2803D1AA2009F0E2
:1049900005FD60E709F080FB0F28F7D009F07CFBEC
:1049A0001028F3D0002056E709F076FB18B920480C
:1049B00009F0F4FC4FE709F06FFB012803D009F080
:1049C0006BFB0E2803D1B22009F0E8FC43E709F0A5
:1049D00063FB0F28F7D009F05FFB1028F3D000200D
:1049E00039E709F059FB18B9124809F0D7FC32E74A
:1049F00009F052FB012803D009F04EFB0E2803D129
:104A0000C92009F0CBFC26E709F046FB0F28F7D0B8
:104A100009F042FB1028F3D000201CE700201AE721
:104A200068004E006C004F006E0053008800460086
:104A300092005500EF009E0010B50420FFF7FCFE29
:104A40000488240A0420FFF7F7FE008844EA0020C7
:104A500080B210BD00B583B000238DF8073000EBA5
:104A60004002134B03EBC203DB7A012B0CD0582816
:104A70000CD8104B03EB4000407808280DD00DF106
:104A8000070107F0CBFB08E058280BD90A4B03EBD2
:104A9000400010F8B13C8DF807309DF8070003B0D6
:104AA0005DF804FB0DF1070107F0C0F9F5E700BF61
:104AB0000004FE1FF02D0200580CFE1F4FF0E023F3
:104AC000D3F8882D42F47002C3F8882DD3F8342F20
:104AD00022F08042C3F8342F084B094A5A605A68C2
:104AE00042F220121A604FF6FF729A60054AD2F81D
:104AF000003843F4F803C2F800387047002005403E
:104B000020C528D900D000401B4A1369C3F30343D2
:104B1000591C1369C3F30363013B052B2BD8DFE852
:104B200003F025030D2A2A12134BD3F8083203F0A1
:104B30000103002B114A18BF134618E00E4BD3F89F
:104B400008330F4B13E00C4AD2F80836D2F8082687
:104B5000C2F3044202F110000A4A02FB00F2C3F35E
:104B6000022301335B00B2FBF3F300E0054BB3FB20
:104B7000F1F3054A136070470040064000127A00C6
:104B8000006CDC02005A6202240FFE1F4FF0E0218D
:104B9000D1F80C2D92B2024B1343C1F80C3D704773
:104BA0000400FA0570B584B006460D465D4B53F817
:104BB00020404C238DF80C304D238DF80D30002310
:104BC000029304AB034402A913F8040C01F050FC57
:104BD0002B78029ADA400292226C22F060025B018A
:104BE00003F06003134323646B78002B08BF012399
:104BF000626C22F0FF0213436364226C22F00C0209
:104C0000AB789B0003F00C0313432364226C22F067
:104C10000302EB7803F0030313432364D4F89020DA
:104C200022F040022B799B0103F040031343C4F8A8
:104C300090306B79302200924FF4405201923A4A00
:104C4000926904A901EB860151F8101C22EA0102C5
:104C5000002E43D0012E4FD0334B9A61AA79012107
:104C600000914FF4807101919B6904A901EB8601C9
:104C700051F8101C23EA0103002E39D0012E45D033
:104C8000294A9361D4F8903023F00403EA79002A8A
:104C900014BF042200221343C4F89030D4F89020AB
:104CA00022F003022B7A03F003031343C4F890307D
:104CB000D4F8943023F008036A7A002A14BF08223B
:104CC00000221343C4F8943036B9AB7A1BB3164AAA
:104CD000536843F40023536004B070BD1B0103F01C
:104CE0003003134310498B61AA798B6923F00103C8
:104CF00002F001021343C3E71B0303F440531343C1
:104D000009498B61AA798B6923F48073120202F43A
:104D100080721343B4E7044A536823F400235360BA
:104D2000DAE700BF742F02000080044030B4144B57
:104D300053F8204050881578A0F570639BB2052B7E
:104D40000BD8104A536823F4E02353605368A0F54E
:104D5000706043EA00405060152004EB8101D1F8F7
:104D6000083100F03F0023F07F030343002D14BF00
:104D7000402200221343C1F8083130BC704700BF05
:104D8000742F020000800440044B53F8203062313D
:104D900053F82130C3F30B0313807047742F0200C4
:104DA0002DE9F04782B04E4B53F82040D4F8946080
:104DB000C6F38006D4F8943003F00309D4F8908049
:104DC000656CEDB2D4F8943043F00303C4F894302A
:104DD000D4F8943043F00403C4F89430D4F89030FD
:104DE00023F04003C4F89030636C23F0FF0343F0DA
:104DF0000C0363640023C4F8B430C4F8B830C4F8BA
:104E0000BC30C4F8C030C4F8C430C4F8C830C4F8EA
:104E1000CC304C228DF804204D228DF805200093D3
:104E2000276C4FEA571A02AB1844694610F8040C75
:104E300001F01EFB009B0AF0030A23FA0AFA294A32
:104E4000924512D9284A934208D9284A934245D913
:104E5000274A934294BF0323002300E00123226CDE
:104E600022F0600242EA43132364D4F8943043F002
:104E70008003C4F89430D4F8943013F0800FFAD142
:104E8000236C23F0600307F060071F432764D4F806
:104E9000943023F00403002E18BF04261E43C4F8E8
:104EA0009460D4F8943023F0030349EA0303C4F870
:104EB0009430D4F8903023F0400308F0400848EADA
:104EC0000303C4F89030002D08BF0125636C23F064
:104ED000FF031D43656402B0BDE8F0870223BEE70F
:104EE000742F020040787D0181F0FA0203E1F5059C
:104EF00007C2EB0B074B5B69DBB2042B06D0802BA0
:104F000006D0012B0CBF01200420704702207047FF
:104F10000320704700E00740044BD3F8000110F075
:104F200080701CBF024B1868704700BF00400640ED
:104F30008831FE1F10B584B00C46002944D0444B84
:104F4000D3F80031C3F34063002B7CD1404AD2F840
:104F5000001121F40001C2F800114FF08061C2F885
:104F600000113C4A0021116000286FD0627A1202C1
:104F700002F4E062217A01F007010A433448C0F8E4
:104F80000421E279120102F03002A179C90001F096
:104F900008010A436179890001F004010A43C0F85D
:104FA00008212279012A2FD051B211B3022A36D01A
:104FB0002268284B1A60284CFFF7AEFF00283DD12D
:104FC000002C39D0013CF7E700238DF804308DF830
:104FD0000C3001228DF808208DF809208DF805206D
:104FE0008DF8063002238DF807301C4B00936C4679
:104FF000A5E7227B002A18BF4FF4000343F001030A
:10500000134AC2F80031D3E7227B002A18BF4FF4BD
:10501000000343F001130E4AC2F80031C8E7227BB7
:10502000002A18BF4FF4000343F4403343F0010358
:10503000074AC2F80031BBE7032005E0002C14BF8B
:105040000020032000E0022004B010BD0020FBE798
:10505000004006408831FE1F88E7300000127A00C9
:10506000074BD3F8000210F0807007D0D3F8080285
:1050700000F001000028034B18BF1846704700BF1E
:105080000040064000127A0010B582B00A4600299E
:105090003DD02D4BD3F80032C3F34063002B4DD1EC
:1050A0002949D1F8004224F40004C1F80042002448
:1050B000C1F80042002844D09178090201F4E0616F
:1050C000507800F0070001431F48C0F8041211781F
:1050D00001F00101C0F80812507991791279A242C9
:1050E00014BF03220122A0420CBF18460420024331
:1050F000A14218BF4FF400031343134AC2F8003211
:105100006424FFF7ADFFA0B98CB1013CF9E70022A0
:105110008DF8042001238DF805308DF806208DF8D8
:1051200001308DF802308DF800306A46B1E7032077
:1051300005E0002C14BF0020032000E0022002B094
:1051400010BD0020FBE700BF00400640044BD3F831
:10515000000310F080701CBFD3F80833014870477B
:1051600000400640006CDC0210B582B00C460029FD
:1051700033D02A4BD3F80033C3F34063002B47D11D
:10518000264AD2F8001321F40001C2F800134FF0B0
:105190008061C2F8001300283DD0A278120202F408
:1051A000E062617801F007010A431C49C1F8042359
:1051B000227802F00302C1F80823A1796279002A5B
:1051C00014BF01220922002918BF4FF40003134322
:1051D000124AC2F8003314240EE001238DF8053082
:1051E00000228DF806208DF801308DF802308DF800
:1051F00000206C46BDE7013CFFF7A8FF18B9002C62
:10520000F9D1032005E0002C14BF0020032000E0AA
:10521000022002B010BD0020FBE700BF00400640A6
:1052200008B50F4BD3F8003613F0807301D1184640
:1052300008BDFFF771FE03460028F8D0084AD2F8EF
:105240000806C0F302200130B3FBF0F0D2F80836B4
:10525000C3F30443103300FB03F04308E7E700BF48
:105260000040064030B585B00D4699B13D4BD3F8AE
:105270000046C4F34064002C70D1D3F8002622F419
:105280000002C3F800264FF08062C3F80026A0B9E0
:10529000002064E000238DF804308DF80B300122EB
:1052A0008DF808208DF809208DF8053007228DF83B
:1052B00006208DF8073001ADD8E7FFF72DFE6B799A
:1052C0001B0203F4E0632A7902F007021343254925
:1052D000C1F804366B781B0203F4E063AA78120469
:1052E00002F4F8121343C1F808362B78012B16D0BC
:1052F0005AB24AB1022B1DD04FF47A74FFF790FFD7
:1053000038BB24B3013CF9E7EB79002B18BF4FF40D
:10531000000444F00104134BC3F80046ECE7EB79BA
:10532000002B18BF4FF4000444F001140D4BC3F8D8
:105330000046E1E7EB79002B18BF4FF4000444F47A
:10534000403444F00104074BC3F80046D4E703207F
:1053500005E0002C14BF0020032000E0022005B06F
:1053600030BD00BF004006402DE9F04180460D46AB
:105370008C7801344E7806FB04460F7807FB04470F
:10538000CB78013B052B1CD8DFE803F00312151B7B
:105390001B18FFF7C1FD0009B8F1020F48D0B8F1A2
:1053A000030F78D0B8F1010F0DD00020BDE8F081D7
:1053B000FFF756FEEFE7FFF7C9FEECE7FFF730FF18
:1053C000E9E70020E7E7EA7802EB4201544B53F8A3
:1053D00021301B0904FB03F48442C0F08F800B468C
:1053E0004F4901EB83035B681B0906FB03F686420A
:1053F000C0F0868002EB420301EB83039B681B092C
:1054000007FB03F787427DD3AB781B0403F47023BB
:10541000120602F0706213432A7802F00F0213435F
:105420006A781201D2B213433E4A53610020BDE7AD
:10543000EA7802EB42013C4B53F821301B0904FB94
:1054400003F4844260D30B46374901EB83035B6866
:105450001B0906FB03F6864258D302EB420301EB1D
:1054600083039B681B0907FB03F7874250D3AB7884
:105470001B0403F47023120602F0706213432A78AF
:1054800002F00F0213436A781201D2B21343254A85
:10549000936100208AE7EB7803EB4301234A52F83B
:1054A0002120120904FB02F4844233D30A461F4927
:1054B00001EB82025268120906FB02F686422BD3E8
:1054C00003EB430201EB82029268120907FB02F729
:1054D000874223D3AA78120402F470221B0603F039
:1054E000706313432A7802F00F0213436A781201A3
:1054F000D2B213430B4AD361002057E7012055E78E
:10550000012053E7012051E701204FE701204DE73B
:1055100001204BE7012049E7012047E7012045E74B
:105520008830020000400640DC30020034300200C7
:1055300038B50546FFF7DEFC2946FFF715FF0446A0
:1055400078B9E8780A220849013A0B69C3F3036382
:10555000984203D0002AF7D1032402E0002A08BFB2
:105560000324204638BD00BF0040064010B5044665
:105570001B4B1B69C3F30363013B052B1ED8DFE8FC
:1055800003F00314171D1D1AFFF7C6FC144B1B690B
:10559000C3F303430133B0FBF3F0012C10D063B22B
:1055A00013B1022C14D0002010BDFFF759FDEDE718
:1055B000FFF7CCFDEAE7FFF733FEE7E70020E5E77A
:1055C000074B1B69C3F303130133B0FBF3F0EBE7A5
:1055D000034B1B6903F00F030133B0FBF3F0E3E768
:1055E0000040064008B5084BD3F8D801C0F38070DE
:1055F00040B103F588331B681B0E14BF0120002047
:10560000FFF7B4FF08BD00BF0050064008B50F4BC0
:105610001B6AC3F30363062B15D8DFE803F0040805
:105620000B0E141411000220FFF7A0FF08BDFFF7B6
:1056300073FCFBE7FFF714FDF8E7FFF787FDF5E7DD
:10564000FFF7EEFDF2E70020F0E700BF0040064064
:1056500008B519B1012931D0002008BD043803284C
:1056600057D8DFE800F010021922FFF76FFD02465D
:105670002A4BD3F8040300F007000028EDD0431EA6
:1056800022FA03F0E9E7FFF7EBFC0246234BD3F8DD
:10569000040200F00700F0E7FFF73EFC02461F4B54
:1056A000D3F8040100F00700E7E7FFF7B9FD024671
:1056B0001A4BD3F8040600F00700DEE7043803288D
:1056C00029D8DFE800F00B02141DFFF73FFD02466A
:1056D000124BD3F80403C0F30220CEE7FFF7C0FC5F
:1056E00002460E4BD3F80402C0F30220C5E7FFF7D1
:1056F00013FC0246094BD3F80401C0F30220BCE7B7
:10570000FFF78EFD0246054BD3F80406C0F30220D6
:10571000B3E70020A1E700209FE700BF004006405C
:1057200008B5114B1B69C3F30113032B19D8DFE82C
:1057300003F00207101300210620FFF789FF08BDC0
:10574000094B186900F00200002818BF4FF4FA4016
:10575000F5E7064B1868F2E700210520FFF778FF10
:10576000EDE70020EBE700BF008004408C31FE1F16
:1057700008B50B4B186A10F080600FD003F5383372
:105780001B681B0E4FF0000114BF05200720FFF718
:105790005FFF044B5B6A0133B0FBF3F008BD00BF51
:1057A000008004400060074038B51C4B33F81030CF
:1057B0009B0003F1804303F5CA231D68C5F3C005B0
:1057C0001C6804F00704AC4225D31868C0F380704D
:1057D00010B31B68C3F30263013B052B19D8DFE844
:1057E00003F0030C101818140620FFF731FF0134E2
:1057F000B0FBF4F005FB00000EE00420FFF728FFEB
:10580000F5E70520FFF724FFF1E70720FFF720FF6A
:10581000EDE70020EBE7002038BD00BF7C2F020041
:105820000F4B1B69C3F38103022B07D0032B0ED050
:10583000002B0CBF4FF4FA3000207047084B18695A
:1058400000F00200002818BF4FF4FA407047044BE4
:10585000186900F00200002818BF4FF4FA407047A2
:105860000080044008B52D4B586810F4006054D0F7
:105870005B68C3F303130F2B09D8DFE803F00A08B2
:105880000D08122F171C2025453329362C3E0020E9
:105890003CE0FFF7BBFE39E001210620FFF7D8FE10
:1058A00034E001210420FFF7D3FE2FE00121052081
:1058B000FFF7CEFE2AE00020FFF758FE26E0012188
:1058C0000720FFF7C5FE21E00120FFF74FFE1DE096
:1058D000FFF7A6FF1AE0FFF723FF17E0FFF748FFE7
:1058E000400813E0FFF77EFE10E0FFF741FF0C4B8E
:1058F0001B681B0E0AD0400808E0094B1868000E10
:1059000004D0FFF735FF01E04FF4FA30034B5B683A
:10591000C3F302230133B0FBF3F008BD0080044061
:1059200000600740F0B5A1B0D8B104460646974BD9
:105930001B69C3F30363032B40F0B2803146E07868
:10594000FFF7A2FB0546002800F0C880FFF7D2FA57
:10595000022800F0DF80032840F0828204F13E0636
:1059600083E201238DF80B3000228DF80C208DF896
:105970000D308DF80E208DF808308DF809308DF837
:105980000A308DF816308DF814308DF815208DF80A
:105990000F208DF810308DF811308DF838300D92C1
:1059A0008DF825307A4906918DF81C208DF8242039
:1059B0008DF81D308DF81E2002208DF81F008DF807
:1059C00020308DF821308DF830308DF828208DF87A
:1059D0002F208DF829200C218DF82A108DF82B20EE
:1059E0008DF82C308DF82D308DF83D3003218DF859
:1059F0003C108DF84B308DF841108DF840208DF81B
:105A00003F308DF83E308DF845008DF844308DF8EC
:105A100043208DF8421006208DF849008DF848206B
:105A20008DF847308DF846105A491E9129211D9155
:105A30008DF84C308DF84D208DF84E208DF84F208C
:105A40008DF850308DF854308DF853308DF8522049
:105A50008DF851208DF868308DF869308DF86A30F6
:105A60008DF86B308DF86C308DF86D308DF87330AB
:105A70008DF858301792189219928DF86E308DF873
:105A80006F308DF870208DF871208DF872208DF8B0
:105A90007C308DF87D308DF87E2002AC264646E7BE
:105AA000FFF754FB28B900210120FFF75DFB0546F5
:105AB00088B903238DF8073000228DF806200122D3
:105AC0008DF805208DF8043001A8FFF731FD05465B
:105AD00000283FF433AF284621B0F0BD04F1100197
:105AE000607FFFF727FA054600287FF42FAF04F107
:105AF000200194F82800FFF7B5FB0546FFF7FAF9F7
:105B0000022807D003283FF429AF012800F0AB8119
:105B10000026AAE104F13A06A7E106238DF8073032
:105B200002238DF8063001238DF805308DF80430FE
:105B300001A8FFF7FDFC0546637F83B1012840F013
:105B4000A98101238DF8073000228DF806208DF8F9
:105B500005308DF8043001A8FFF7EAFC0546E3782C
:105B6000002B00F09781012D40F0948102238DF8E5
:105B7000073000238DF806308DF8053001238DF8AD
:105B8000043001A8FFF7D4FC054683E1004006403D
:105B900000127A00280FFE1F8DF80730B3788DF8B9
:105BA000063073788DF8053033788DF8043001A80D
:105BB000FFF7BEFC054600288DD1E11DA07BFFF755
:105BC000D3FA0546002D86D194F8303013B1E26A3D
:105BD0009C4B1A6094F8353053B19B490A6A22F005
:105BE000706294F834301B0603F0706313430B6249
:105BF00094F84330002B40F00B81236F002B38D0FA
:105C0000E36E002B35D000229049914802EB8206CA
:105C1000236F9B5D31F813309B0003F1804303F544
:105C2000CA231F6827F080471F60236F03EB060C11
:105C30009F5D9CF802301B0603F0E0639CF8036054
:105C4000F60006F0080633439CF8046006F00706E9
:105C500033439CF80160002E14BF4FF080460026AD
:105C6000334331F8176040F826300132E36E9A4230
:105C7000CCD394F84430C3B194F8463094F847201C
:105C80007449486820F47F6094F84510002914BFD7
:105C90004FF4006100211B01DBB2120202F4E0624A
:105CA000134303430B436B4A536094F84830DBB112
:105CB00094F84A3094F849206649096921F03F0177
:105CC00094F84C00084394F84B10002914BF0221AB
:105CD00000219B0003F00C030343120102F0300289
:105CE00013430B435B4A136194F86030002B44D09C
:105CF000584B196C21F0010194F861200A431A6491
:105D00001B6C23F0020394F86220002A14BF0222C5
:105D1000002213434F4A1364136C23F0040394F8D6
:105D20006320002A14BF042200221343494A13644B
:105D3000136C23F0080394F86420002A14BF08228F
:105D400000221343434A1364136C23F0100394F8A6
:105D50006520002A14BF1022002213433D4A136419
:105D6000136A23F0806394F86B20002A14BF4FF06D
:105D7000806200221343374A136294F8503033B1E3
:105D8000354B626D1A60A26D5A60E26D9A6094F8AC
:105D90006630EBB12F4A936E00209066516821F473
:105DA000805194F868301B0303F480530B43536015
:105DB000906694F867305BB194F869305B0003F04B
:105DC0000E0394F86A20134343F08053214A9366EC
:105DD00094F87430002B3FF47EAE20498B7803F0AA
:105DE0007F0394F8752082F0010243EAC213DBB20C
:105DF0008B7094F97630002BBCBF20335BB217490F
:105E00000A7903F01F0302F0E00213430B7162E60C
:105E100004F136010120FFF7A7FA08B105465AE65A
:105E200004F13A010220FFF79FFA48B904F13E015C
:105E30000320FFF799FA00283FF4DFAE05464AE653
:105E4000054648E68C31FE1F004006407C2F0200CC
:105E500000500640008004409031FE1F00D00740F3
:105E600001287FF438AE04F13606002D7FF433AEFE
:105E7000F378032B7FF490AE94F82830002B7FF456
:105E80004CAE637F002B7FF45CAEE378002B7FF495
:105E90006DAE0125002D7FF41EAEE11DA07BFFF746
:105EA00063F9054600287FF416AEF3788DF80730C5
:105EB000B3788DF8063073788DF8053033788DF827
:105EC000043001A8FFF734FB05467BE670B50446B5
:105ED0000D46112807D92B2840F284805A2840F219
:105EE000C981042070BD112879D8DFE800F00912BB
:105EF000181E23282D32373B40474E555C636A718C
:105F00000020FFF733FB03460020002DEAD02B6072
:105F1000E8E70120FFF72AFB03460020F5E702200F
:105F2000FFF724FB03460020EFE7FFF79BFC034647
:105F30000020EAE7FFF794F803460020E5E7FFF7C3
:105F400005F903460020E0E7FEF7E6FF03460020E0
:105F5000DBE7FFF765F903460020D6E7B24B1B6885
:105F60000020D2E7FFF752FB03460020CDE70021D7
:105F70000420FFF76DFB03460020C6E70121042043
:105F8000FFF766FB03460020BFE700210520FFF76F
:105F90005FFB03460020B8E701210520FFF758FB0F
:105FA00003460020B1E700210620FFF751FB03461E
:105FB0000020AAE701210620FFF74AFB0346002044
:105FC000A3E700210720FFF743FB034600209CE7DF
:105FD00001210720FFF73CFB0346002095E7002343
:105FE000042092E7A0F11504162C00F20B81DFE8E3
:105FF00014F0170023002F003B00460052005E0003
:106000006A0076007F00840090009D00AA00B30023
:10601000BE00C900D400DF00EA00EF00F400FE007B
:10602000824BDB68C3F30163022B00F2EE80804AEF
:1060300052F82330002056E07C4BDB68C3F38163C9
:10604000022B00F2E5807A4A52F8233000204AE021
:10605000764BDB68C3F30173022B00F2DC80744AD9
:1060600052F8233000203EE0704BDB689B0F022B80
:1060700000F2D4806E4A52F82330002033E06B4B9C
:10608000DB68C3F30143022B00F2CB80684A52F86D
:106090002330002027E0654BDB68C3F38143022BEC
:1060A00000F2CC80624A52F8233000201BE05F4BA4
:1060B000DB68C3F30153022B00F2C3805C4A52F841
:1060C000233000200FE0594BDB68C3F38153022BD0
:1060D00000F2BA80564A52F82330002003E0FFF75E
:1060E000C1FB03460020002D3FF4FCAE2B60F9E617
:1060F000FFF716FB03460020F5E74E4B9B78DB09C4
:1061000002D000231846EEE7FFF78AFB0346002083
:10611000E9E7484B9B78DB0940F09980434B1B69CA
:1061200013F0010340F096800020DCE7414B9B78A0
:10613000DB0940F093803D4B1B6913F0020340F0F4
:1061400090800020CFE73B4B9B78DB0940F08D80AF
:106150004FF4FA330020C6E7344B1B6CC3F3001333
:1061600013B100231846BEE74FF48070BBE72F4BF6
:106170001B6CC3F3C00313B100231846B3E74FF4FD
:106180008070B0E7294B1B6CC3F3800313B100236D
:106190001846A8E74FF48070A5E7244B1B6CC3F3A7
:1061A000400313B1002318469DE74FF480709AE72F
:1061B0001E4B1B6C13F0010302D00023184692E71C
:1061C0004FF480708FE7FFF7D3FA430800208AE787
:1061D000FFF708FA0346002085E7FFF7C9FA0346F0
:1061E000154A1268120E43D0430800207BE7124B79
:1061F0001B681B0E01D1002075E7FFF7B9FA0346B3
:10620000002070E7002304206DE7002318466AE7AA
:106210000023184667E70023184664E70023184662
:1062200061E7002318465EE78C31FE1F00800440C2
:106230009031FE1F00D00740006007400023184641
:1062400051E7002318464EE7002318464BE700238A
:10625000184648E74FF47A73002044E700231846B5
:1062600041E74FF4FA4300203DE7002318463AE7A0
:10627000002038E72C285CD9A0F13903DBB2122BBF
:1062800063D8344A22FA03F313F0010F58D1324B8A
:1062900033F81420314B53F8223013F0804F51D093
:1062A0002F4B1E5D16F0200F12D116F0400F18D1A3
:1062B00016F0800F1ED116F0180F37D016F0080F09
:1062C00021D116F0100F26D100234FF4807032E058
:1062D0000120FFF74BF903460028ECD14FF4807002
:1062E00029E00020FFF742F903460028E3D14FF4EC
:1062F000807020E00220FFF739F903460028DAD148
:106300004FF4807017E000212046FFF74DFA034656
:1063100016F0100F04D001212046FFF745FA03467E
:10632000002B14BF00204FF4807004E000231846B7
:1063300001E004200023002D3FF4D4AD2B60D1E513
:106340000420F7E74FF48070F4E75A2808BF0420D0
:10635000F0D09CE7410104007C2F02000050064071
:106360003031020010B4054C20602171A26023730B
:10637000637300205DF8044B704700BFAC00002041
:106380002DE9F04182B007460E468DF804008DF8E5
:10639000051003F04BFA354B1C7B5C7301238DF821
:1063A0000630002C52D00024304D04E00134E4B219
:1063B0002B7BA3424AD9AB6853F82430002BF5D08D
:1063C0001A79022AF2D01A68996801A89047002821
:1063D000ECD06C73002EE9D140F2031540E00223AB
:1063E0008DF80630214B1B7BEBB100241F4F04E0DE
:1063F00001343A7BE3B29A4215D95FFA84F8BB685C
:1064000053F82830002BF3D01A79012AF0D01A68FB
:10641000996801A890470028EAD087F80D80002EDF
:10642000E6D14FF4827503F0F3F9284602B0BDE8D7
:10643000F081043C14F1040FF5D0B3681B59002B14
:10644000F7D01A68996801A89047F2E7074D2B68C2
:1064500053F82700FFF766FA6F7105460028BED093
:1064600000238DF80630A400004EE6E7AC000020C3
:1064700008B5FFF72BFD08BD29B14118002300F82E
:10648000013B8142FBD1704710B4064B1B6853F8A7
:106490002040616053F820309A6000205DF8044B82
:1064A000704700BFBC00002008B5084B1B6853F8BC
:1064B000203000F00F00064A1077D07723B15A68D9
:1064C00012B1197B9868904708BD00BFBC0000203E
:1064D0000080004038B5054600F00F040022214638
:1064E000094800F0EAF9094B1B6853F8253053B10D
:1064F000054A1477D477947701221A735A6812B137
:10650000197B9868904738BD00800040BC0000208F
:106510002DE9F04F85B09DF838600F9D0124B440FF
:106520005FFA84FCB5FBFCF70CFB17571FB1012089
:1065300005B0BDE8F08F039302928946804600F0D3
:106540000F07DFF8FCA03946504600F0BBF9DAF837
:10655000003023F08003CAF800307B0103F1804251
:1065600002F5004B02F5104202991160534441F2CA
:106570001002039999500196009600231A46394655
:10658000504600F0D5F9B9F1030F12D8DFE809F051
:10659000022B3B4A41F2040300222BF8032064B291
:1065A000A4B27B0103F1804303F5004341F21402DE
:1065B0009C52234C2A463946204600F0D1F901224C
:1065C0003946204600F0FAF904EB471741F21C0265
:1065D000BB5A43F00203BB521A4B1B6853F82830D6
:1065E00000201873A4E764B2A4B241F204032BF8AC
:1065F00003407B0103F1804303F5004341F21402A1
:1066000000219952D5E764B2A4B241F204032BF8F9
:1066100003407B0103F1804303F5004341F2140280
:106620009C52C6E7002241F204032BF803207B01B1
:1066300003F1804303F5004341F214015A52B8E7D5
:1066400000800040BC00002070B582B00546079C69
:1066500001949DF818400094FFF75AFF064610B1C8
:10666000304602B070BD05F00F050F4C089A294660
:10667000204600F0A3F904EB451441F21C03E35A51
:1066800023F008031B041B0C9DF82420002A14BFD0
:10669000082200221343690101F1804101F5004104
:1066A00041F21C028B52DBE70080004008B501225A
:1066B00000F00F01024800F000F9002008BD00BF03
:1066C0000080004008B5002200F00F01024800F0F1
:1066D000F4F8002008BD00BF0080004010B40F4B4C
:1066E0001C5C04F07F041C541C5C01F03F0104F0AE
:1066F000C004214319541B5C03F0BF03002A14BFDC
:10670000402200221A43054B1A541A5C42F08002C0
:106710001A5400205DF8044B704700BF001002407F
:106720002DE9F04180460C464D7805F00F0610210A
:10673000FFF7A2FE227BA1786078FFF7CFFF074624
:1067400031461D4800F0BEF817B13846BDE8F0816B
:106750001A4B1B6843F8258053F82520157053F811
:10676000253000221A73144D01223146284600F0CC
:106770009FF82B6813F0040F11D12378FF2B0ED054
:1067800086F0030606F1804606F5004696F80021DD
:1067900003F00F0302F0F002134386F8003165683E
:1067A000A1686278054B1B6853F82200456053F8D6
:1067B00022309960C9E700BF00800040BC00002083
:1067C000F8B50C4617461E46234B18604021FFF7CC
:1067D00053FE224D284600F09AF82A6822F004025F
:1067E00023789B0003F0040313432B602B6823F0F2
:1067F00010036278002A14BF1022002213432B607A
:10680000102002F0EBFF164DAC1E1E3534F9020FBE
:1068100002F0E4FFA542F9D1124800F0FEF8AFB152
:10682000B6B1069BB3B13C1F351F07EB8307043F8E
:10683000002655F8041F54F8040FFFF771FF0028D5
:1068400018BF0646BC42F4D13046F8BD0026FBE72F
:106850000026F9E70026F7E7BC0000200080004092
:106860008C3102000010024000F00F00400100F1E6
:10687000804000F5004041F20C03C150704700F029
:106880000F00400100F1804000F5004041F210038C
:10689000C150704708B50A4600F00F01014800F0EA
:1068A0008DF808BD0080004000487047008000401F
:1068B0000AB141767047017670470AB1C1767047D8
:1068C0008176704700EB4111002341F208028B50A2
:1068D00001F58052136041F204028B5241F206022C
:1068E0008B5241F20C028B5041F210028B5041F25C
:1068F00014028B5241F216028B5241F218028B5055
:1069000041F21C028B5241F21E028B52704738B585
:106910000546036823F4403323F0C60303600024D4
:10692000E1B22846FFF7CEFF0134102CF8D138BD74
:1069300010B4DB00DCB29DF8083003F007032343FA
:1069400043EAC2239DF80420120202F4E0621343DA
:106950009BB2803100EB4111CB805DF8044B704756
:10696000036813F0800F23D010B400EB411341F201
:1069700008041B59002B0BDB00EB41131B5913F0D0
:10698000804F05D122F0404200EB411002510CE053
:1069900000EB411041F20801435823F47F7323F0C8
:1069A0000303C2F30902134343505DF8044B7047DD
:1069B00000EB411041F20803C250704710B400EBE5
:1069C000411441F21E03E35A13F4004F14D100EBBB
:1069D000411041F21E01435AC2F30E0203F4004378
:1069E0001343435241F21601435A03F400431A433E
:1069F00042525DF8044B704741F21E01635AC2F3E4
:106A0000080203F47E431343635241F21601635AB2
:106A100003F47E431A436252EBE700231A46C25442
:106A20000133102BFBD1704708B50020FFF73CFD68
:106A300008BD08B50120FFF737FD08BD08B50220E5
:106A4000FFF732FD08BD08B50320FFF72DFD08BD97
:106A500008B50420FFF728FD08BD08B50520FFF79D
:106A600023FD08BD08B50620FFF71EFD08BD08B5CB
:106A70000720FFF719FD08BD08B50820FFF714FD32
