S04500004D52532D436865636B3E3E3E3430313038312C3430313233302C2C3430313738323C3C3C43202F2F2056342E31352E312E30204C69622D5333324B2D342E31342E30C8
S03400004D52532D50726F67446174613E3E3E353030206B4269743B56302E302E303B434331365750204170706C69636174696F6EC1
S0FF00004D52532D4578747261446174613E3E3E312E3135342E3330302E30302C312E3135342E3231312E30302C312E3135342E3330302E303431302C312E3135342E3330302E303230302C312E3135342E3330302E31302C312E3135342E3330302E32302C312E3135342E3331302E30302C312E3135342E3332302E30302C312E3135342E3333302E30302C312E3135342E3334332E30332C312E3135342E3330322E30302C312E3135342E3330322E30332C312E3135342E3330322E33302C312E3135342E3330302E30342C312E3135342E3331302E30342C312E3135342E3330302E30332C312E3135342E3330302E303032312D363031313839302C31D8
S03D00004D52532D4578747261446174613E3E3E2E3135342E3332302E30352C312E3135342E3330302E30302D363035323138372C312E3135342E3B433B33
S06E00004D52532D496D6167654964656E743E3E3E354342423331393633383244414346393341343336434332323234443535463132394146393131443743463932373532383535443838383336454643453337443C3C3C202F2F20323032342D31312D32315431343A33383A35311F
S32500010000785634124C1D435F01000000A406A98D005D01004E4F5F50524F47000000000047
S325000100200000000000000000000000000000000000000000000000000000000000000000B9
S32500010040000000000000000000000000000000000000000000000000000000000000000099
S32500010060000000000000000000000000000000000000000000000000000000000000000079
S32500010080000000000000000000000000000000000000000000000000000000000000000059
S3250001100000F0012051140100991401009914010099140100991401009914010000000000EC
S3250001102000000000000000000000000099140100991401000000000099140100E5C30100F6
S32500011040556801005F68010069680100736801007D68010087680100916801009B68010081
S32500011060A5680100AF680100B9680100C3680100CD680100D7680100E1680100EB680100E1
S32500011080F56801009914010099140100991401009914010099140100991401009914010029
S325000110A0C79E0100D19E01001B9F0100259F01002F9F0100DB9E0100E59E01009914010058
S325000110C0991401009914010099140100991401009914010099140100991401009914010099
S325000110E05D370100991401009914010099140100991401009914010015B501001FB501004E
S32500011100991401009914010099140100991401009914010099140100991401009914010058
S32500011120991401009914010099140100991401009914010099140100991401009914010038
S32500011140991401009914010099140100991401009914010099140100991401009914010018
S32500011160991401009914010099140100991401009914010099140100018101000B81010044
S32500011180158101001F810100298101009914010099140100338101003D81010099140100E7
S325000111A0478101005181010099140100991401005B81010065810100991401006F810100CD
S325000111C0798101009914010099140100458C0100518C01005D8C0100698C01009914010073
S325000111E0A58C0100758C0100818C01008D8C0100998C010099140100C18C0100DD8C010000
S32500011200E98C0100F58C0100018D0100991401003D8D01000D8D0100198D0100258D0100D2
S32500011220318D010099140100598D0100758D0100818D01008D8D0100998D01009914010051
S32500011240D58D0100A58D0100B18D0100BD8D0100C98D010099140100F18D01000D8E010047
S32500011260198E0100258E0100318E0100991401006D8E01003D8E0100498E0100558E010019
S32500011280618E010099140100898E010099140100991401009914010099140100991401002B
S325000112A09914010099140100991401009914010099140100991401009914010099140100B7
S325000112C0991401009914010099140100991401009914010099140100991401009914010097
S325000112E0991401009914010099140100991401009914010099140100991401009914010077
S32500011300991401009914010099140100991401009914010099140100991401009914010056
S32500011320991401009914010099140100991401009914010099140100991401009914010036
S32500011340991401009914010099140100991401009914010099140100991401009914010016
S325000113609914010099140100991401009914010099140100991401009914010099140100F6
S325000113809914010099140100991401009914010099140100991401009914010099140100D6
S325000113A09914010099140100991401009914010099140100991401009914010099140100B6
S325000113C0991401009914010099140100991401009914010099140100991401009914010096
S325000113E099140100991401009914010099140100991401009914010099140100FFFFFFFF28
S32500011400FFFFFFFFFFFFFFFFFFFFFFFFFE7FFFFF10B5054C237833B9044B13B10448AFF3B8
S3250001142000800123237010BD1000002000000000243D020008B5034B1BB103490348AFF3FE
S32500011440008008BD0000000014000020243D020072B64FF000014FF000024FF000034FF07F
S3250001146000044FF000054FF000064FF00007B846B946BA46BB46BC46044880470448854668
S325000114800448804762B602F0EDFFFEE7E948010000F00120C9B50100FFF7FEBF81F0004130
S325000114A002E000BF83F0004330B54FEA41044FEA430594EA050F08BF90EA020F1FBF54EAEA
S325000114C0000C55EA020C7FEA645C7FEA655C00F0E2804FEA5454D4EB5555B8BF6D420CDDAE
S325000114E02C4480EA020281EA030382EA000083EA010180EA020281EA0303362D88BF30BD45
S3250001150011F0004F4FEA01314FF4801C4CEA113102D0404261EB410113F0004F4FEA03330F
S325000115204CEA133302D0524263EB430394EA050F00F0A780A4F10104D5F1200E0DDB02FA13
S325000115400EFC22FA05F2801841F1000103FA0EF2801843FA05F359410EE0A5F120050EF190
S32500011560200E012A03FA0EFC28BF4CF0020C43FA05F3C01851EBE37101F0004507D54FF0E5
S32500011580000EDCF1000C7EEB00006EEB0101B1F5801F1BD3B1F5001F0CD349085FEA3000F8
S325000115A04FEA3C0C04F101044FEA445212F5800F80F09A80BCF1004F08BF5FEA500C50F111
S325000115C0000041EB045141EA050130BD5FEA4C0C404141EB010111F4801FA4F10104E9D11D
S325000115E091F0000F04BF01460020B1FA81F308BF2033A3F10B03B3F120020CDA0C3208DD80
S3250001160002F1140CC2F10C0201FA0CF021FA02F10CE002F11402D8BFC2F1200C01FA02F191
S3250001162020FA0CFCDCBF41EA0C019040E41AA2BF01EB0451294330BD6FEA04041F3C1CDA33
S325000116400C340EDC04F11404C4F1200220FA04F001FA02F340EA030021FA04F345EA030105
S3250001166030BDC4F10C04C4F1200220FA02F001FA04F340EA0300294630BD21FA04F02946D5
S3250001168030BD94F0000F83F4801306BF81F480110134013D4EE77FEA645C18BF7FEA655C1C
S325000116A029D094EA050F08BF90EA020F05D054EA000C04BF1946104630BD91EA030F1EBF58
S325000116C00021002030BD5FEA545C05D14000494128BF41F0004130BD14F580043CBF01F578
S325000116E0801130BD01F0004545F0FE4141F470014FF0000030BD7FEA645C1ABF1946104632
S325000117007FEA655C1CBF0B46024650EA013406BF52EA033591EA030F41F4002130BD00BFED
S3250001172090F0000F04BF0021704730B54FF4806404F132044FF000054FF0000150E700BFC7
S3250001174090F0000F04BF0021704730B54FF4806404F1320410F0004548BF40424FF0000113
S325000117603EE700BF42004FEAE2014FEA31014FEA02701FBF12F07F4393F07F4F81F06051F5
S32500011780704732F07F4208BF704793F07F4F04BF41F40021704730B54FF4607401F00045D7
S325000117A021F000411CE700BF50EA010208BF704730B54FF000050AE050EA010208BF704785
S325000117C030B511F0004502D5404261EB41014FF4806404F132045FEA915C3FF4D8AE4FF070
S325000117E003025FEADC0C18BF03325FEADC0C18BF033202EBDC02C2F1200300FA03FC20FAAF
S3250001180002F001FA03FE40EA0E0021FA02F11444BDE600BF70B54FF0FF0C4CF4E06C1CEAD2
S3250001182011541DBF1CEA135594EA0C0F95EA0C0F00F0DEF82C4481EA030621EA4C5123EA60
S325000118404C5350EA013518BF52EA033541F4801143F4801338D0A0FB02CE4FF00005E1FB04
S3250001186002E506F00042E0FB03E54FF00006E1FB03569CF0000F18BF4EF0010EA4F1FF04AE
S32500011880B6F5007F64F5407404D25FEA4E0E6D4146EB060642EAC62141EA55514FEAC520A2
S325000118A040EA5E504FEACE2EB4F1FD0C88BFBCF5E06F1ED8BEF1004F08BF5FEA500E50F17C
S325000118C0000041EB045170BD06F0004646EA010140EA020081EA0301B4EB5C04C2BFD4EB0B
S325000118E00C0541EA045170BD41F480114FF0000E013C00F3AB8014F1360FDEBF002001F0BD
S32500011900004170BDC4F10004203C35DA0C341BDC04F11404C4F1200500FA05F320FA04F010
S3250001192001FA05F240EA020001F0004221F0004110EBD37021FA04F642EB06015EEA430EDD
S3250001194008BF20EAD37070BDC4F10C04C4F1200500FA04F320FA05F001FA04F240EA020083
S3250001196001F0004110EBD37041F100015EEA430E08BF20EAD37070BDC4F1200500FA05F218
S325000119804EEA020E20FA04F301FA05F243EA020321FA04F001F0004121FA04F220EA020065
S325000119A000EBD3705EEA430E08BF20EAD37070BD94F0000F0FD101F00046400041EB010100
S325000119C011F4801F08BF013CF7D041EA060195F0000F18BF704703F00046520043EB03037E
S325000119E013F4801F08BF013DF7D043EA0603704794EA0C0F0CEA135518BF95EA0C0F0CD03D
S32500011A0050EA410618BF52EA4306D1D181EA030101F000414FF0000070BD50EA410606BFED
S32500011A201046194652EA430619D094EA0C0F02D150EA013613D195EA0C0F05D152EA0336D6
S32500011A401CBF104619460AD181EA030101F0004141F0FE4141F470014FF0000070BD41F0C0
S32500011A60FE4141F4780170BD70B54FF0FF0C4CF4E06C1CEA11541DBF1CEA135594EA0C0FFC
S32500011A8095EA0C0F00F0A7F8A4EB050481EA030E52EA03354FEA013100F088804FEA0333BC
S32500011AA04FF0805545EA131343EA12634FEA022245EA111545EA10654FEA00260EF0004120
S32500011AC09D4208BF964244F1FD0404F5407402D25B084FEA3202B61A65EB03055B084FEA36
S32500011AE032024FF480104FF4002CB6EB020E75EB030E22BFB61A754640EA0C005B084FEA09
S32500011B003202B6EB020E75EB030E22BFB61A754640EA5C005B084FEA3202B6EB020E75EB95
S32500011B20030E22BFB61A754640EA9C005B084FEA3202B6EB020E75EB030E22BFB61A7546FD
S32500011B4040EADC0055EA060E18D04FEA051545EA16754FEA06164FEAC30343EA52734FEAB1
S32500011B60C2025FEA1C1CC0D111F4801F0BD141EA00014FF000004FF0004CB6E711F4801FD1
S32500011B8004BF01430020B4F1FD0C88BFBCF5E06F3FF6AFAEB5EB030C04BFB6EB020C5FEA26
S32500011BA0500C50F1000041EB045170BD0EF0004E4EEA113114EB5C04C2BFD4EB0C0541EA32
S32500011BC0045170BD41F480114FF0000E013C90E645EA060E8DE60CEA135594EA0C0F08BF42
S32500011BE095EA0C0F3FF43BAF94EA0C0F0AD150EA01347FF434AF95EA0C0F7FF425AF1046B7
S32500011C0019462CE795EA0C0F06D152EA03353FF4FDAE1046194622E750EA410618BF52EA36
S32500011C2043067FF4C5AE50EA41047FF40DAF52EA43057FF4EBAE12E74A0011D212F50012F1
S32500011C4011D20DD56FF47873B3EB62520ED44FEAC12343F0004343EA505323FA02F070470D
S32500011C604FF00000704750EA013002D14FF0FF3070474FF00000704753B94AB9002908BF0F
S32500011C8000281CBF4FF0FF314FF0FF3000F074B9ADF1080C6DE904CE00F006F8DDF804E0BF
S32500011CA0DDE9022304B070472DE9F047089E04468846002B40F085808A42154648D9B2FA68
S32500011CC082F24AB1C2F1200701FA02F320FA07F7954047EA030894404FEA154E230CB8FB49
S32500011CE0FEF71FFA85FC0EFB178843EA084307FB0CF1994209D9EB1807F1FF3080F0E38075
S32500011D00994240F2E080023F2B445B1AA4B2B3FBFEF00EFB103344EA034400FB0CFCA4458B
S32500011D2009D92C1900F1FF3380F0CB80A44540F2C88002382C4440EA0740A4EB0C04002753
S32500011D401EB1D4400023C6E900433946BDE8F087002A53D0B2FA82F2002A40F0B680491B88
S32500011D604FEA154E1FFA85F80127B1FBFEFC230C0EFB1C1143EA014308FB0CF1994207D9CB
S32500011D80EB180CF1FF3002D2994200F2EC808446591AA3B2B1FBFEF00EFB101443EA044432
S32500011DA008FB00F8A04507D92C1900F1FF3302D2A04500F2DC801846A4EB080440EA0C407E
S32500011DC0BEE78B4208D9002E78D00027C6E9000138463946BDE8F087B3FA83F77FB98B4217
S32500011DE002D3824200F2BD80841A61EB030301209846002EA9D0C6E90048A6E7FFDEC7F165
S32500011E002005BB4022FA05FC4CEA030C01FA07F420FA05F821FA05F34FEA1C4E48EA04043C
S32500011E20B3FBFEF9210C0EFB19331FFA8CF841EA034309FB08FA9A4502FA07F200FA07F19A
S32500011E400BD91CEB030309F1FF3080F088809A4540F28580A9F102096344A3EB0A03A4B296
S32500011E60B3FBFEF00EFB103344EA034400FB08F8A04508D91CEB040400F1FF336BD2A045E9
S32500011E8069D90238644440EA0940A4EB0804A0FB02894C45C6464B4654D351D0002E69D006
S32500011EA0B1EB0E0264EB030404FA05F522FA07F3FC401D43C6E90054002746E73746304625
S32500011EC043E7184637E707461FE7C2F1200320FA03F7954001FA02F021FA03F34FEA154EA9
S32500011EE03843010CB3FBFEF71FFA85F80EFB173341EA034107FB08F38B4204FA02F407D9BA
S32500011F00691807F1FF3C28D28B4226D9023F2944CB1A81B2B3FBFEF00EFB103341EA034123
S32500011F2000FB08F38B4207D9691800F1FF3C10D28B420ED902382944C91A40EA074714E7B7
S32500011F404145ABD2B8EB020E69EB0C0201381346A4E76046F0E7184695E76746D8E78146BB
S32500011F607BE7384645E7ACF1020C2B4410E702382C4421E73746E8E6704700BF034613F876
S32500011F80012B002AFBD1181A013870470000000001F0FF01102A2BDB10F0070F08D010F8CF
S32500011FA0013B013A8B422DD010F0070F42B3F6D1F0B441EA012141EA014122F007047FF01D
S32500011FC000070023F0E80256083C85EA010586EA010685FA47F5A3FA87F586FA47F6A5FA40
S32500011FE087F68EB9EED1F0BC01F0FF0102F0070232B110F8013B013A83EA010313B1F8D15F
S325000120000020704701387047002D06BF35460338073815F0010F07D1013015F4807F02BF24
S32500012020013015F4C03F0130F0BC0138704700BF704770477047704708B50B68B3F5FC6FB5
S3250001204000D008BD08464B7A302B09D08B7A102B09D0222BF5D1054B196801F0B3FEF0E727
S3250001206002F02EF8EDE701F091FEEAE7702AFE1F7047704708B501200AF02CFA5321012064
S325000120800AF0ECF90B4801F08FFD022002F052FA0121582009F0DEFD0121372009F0DAFD73
S325000120A00021572009F0D6FD0121512009F0D2FD08BD00BFC02B020008B550B1012811D021
S325000120C00121472009F0C6FD0121412009F0C2FD07E00021472009F0BDFD0121412009F0DB
S325000120E0B9FD08BD0121472009F0B4FD0021412009F0B0FDF5E700002DE9F0410021372068
S3250001210009F0A8FD0F4C04F11C08002736253C263946284609F09EFD6178304609F09AFD62
S325000121200121284609F096FD02344445F0D10121372009F08FFD0021572009F08BFDBDE840
S32500012140F08100BF580CFE1F030E03EB0063020202F47F021344000A00F47F4018447047C3
S32500012160B2F5007F5CD22DE9F04F83B0D418B4F5007F41DC5C1EA4B21F2C3DD802F0070E14
S3250001218003EB0E04202C37DC4FF0000C6446640044F001040CF1010C1FFA8CF5AB42F6D8E8
S325000121A00F46D50805F1010B05F1020A05F1030911F80B2011F80A804FEA084808EB022873
S325000121C04A5D904411F8096008EB066820409DF83020012A13D000FA0EF604FA0EF028EA4B
S325000121E0000006437E55330A07F80B30330C07F80A30360E07F8096003B0BDE8F08FC3F196
S325000122002003A3EB0E0E1FFA8EF301939840FFF79BFF0646019B04FA03F0FFF795FFDEE72C
S325000122207047F0B49DF81050B1F5007F54D28C18B4F5007F53DC541EA4B21F2C51D801F0D4
S3250001224007041619202E4EDCCE08012B20D081194F788B781B0403EB0723805D1844CB78BC
S3250001226000EB0360E04000231C46640044F00104013399B29142F8D32040142D03D0113DE8
S32500012280EDB2012D29D8551E20FA05F51F231AE08419E378805D03EB0060A37800EB03205A
S325000122A0637800EB0340C2F1200301F00701591ACBB2D840D7E7012D4FEA440408BF44F0CF
S325000122C00104013B9BB2591C89B29142F3D86400002BF6D1604000E00020F0BC70470020A2
S325000122E0FBE70020F9E70020F7E7000008B5044B53F8203010221968586900F0F7FF08BD31
S32500012300C00CFE1F08B5044B53F8203010225968186900F0EBFF08BDC00CFE1F10B5A4B011
S32500012320044614900AF02CF90D4B53F824309A686946186901F043F818B10AF023F924B081
S3250001234010BD694613A809F08DFB0028F5D1044B53F824300121186901F04BF8EDE700BF78
S32500012360C00CFE1F00B583B000238DF807308DF807309DF80730DBB2012B0ED89DF80700E3
S32500012380FFF7CCFF9DF807300133DBB28DF807309DF80730DBB2012BF0D903B05DF804FBD7
S325000123A008B50B4602680A60017A1A7A61F300021A72027AC2F34002197A62F3410119721B
S325000123C090F8492083F8492090F84A2083F84A2090F84B2083F84B2090F84C2083F84C2096
S325000123E090F8492000F1090103F109000FF078FD08BD000008B5054B53F82030DA68586909
S3250001240000F088FF002818BF032008BDC00CFE1F30B585B005460C460A7A0B6843EAC2735E
S32500012420009391F8490009F06DFB8DF8040094F84B308DF8053094F84C308DF8063094F836
S32500012440492004F1090102A80FF04AFD064B53F825309A686946186900F05CFF002818BFB0
S32500012460032005B030BD00BFC00CFE1F2DE9F04F83B007468946624B9B88002B00F0928047
S325000124800024604DDFF8788101F1090A28E006EBC60305EB83035B7F002B57D198F80C305E
S325000124A0002B67D099F8083013F0010F62D006EBC60305EB83035B6803F47F43B8F8102019
S325000124C0934257D1D9F8003003F47F43B8F8122093424FD00134E4B2B8F80430A34261D99A
S325000124E0264604EBC40315F82330DBB2BB42F1D104EBC40305EB83035B7D002BEAD104EB2E
S32500012500C40305EB83031B7ADBB299F8082002F001029A42DED104EBC40305EB83039969EE
S32500012520D9F800205B689A42B1D004EBC40305EB83039B69002BCDD004EBC40305EB83035F
S325000125405B685A4032EA0103C4D1A0E706EBC60B05EB8B0B9BF81C109BF81D20042300934A
S3250001256000235046FFF75DFE9BF81E30DBB29842B0D193E706EBC602224B03EB82039B7D56
S32500012580DBB2172B27D0204A682303FB06231B7D13F0200F15D068211C4B01FB04314846F4
S325000125A0FFF7FEFE07EB8703194A02EBC3031B79184B1B6813B149463846984703B0BDE80E
S325000125C0F08F06EBC6060F4B03EB8603987D4946FFF71EFFDFE74FF0680808FB04F008308C
S325000125E0094D0321284400F0E7FB08FB06531A7D42F0010202F0FD026FF382021A75CAE7DD
S32500012600742AFE1F2C2802004C1FFE1F641FFE1FB4270200300000202DE9F04198B08046F8
S325000126200646224B53F8203058690269002A3AD000241E4F2AE0009B23F000420492DB0FD4
S325000126409DF8182063F300028DF818209DF8040009F0ECF902468DF859009DF805308DF8A5
S325000126605B309DF806308DF85C3002A90DF119000FF036FC04A94046FFF7F8FE0134A4B24F
S3250001268057F8263058690269944208D2DA68694600F06CFE05460028CDD00428EED12846FE
S325000126A018B0BDE8F0810525F9E700BFC00CFE1F394B9B88002B6ED02DE9F04F87B00024C3
S325000126C0364D374F344E23E09DF80F300093BDF80C30BDF80A2059460498FFF741FD09F1C5
S325000126E001095FFA89F933884B450CD909EB49030AEB830393E8070088E807009DF808303D
S32500012700A342ECD1E0E70134E4B2B388A3423FD904EBC40305EB83031B6A002BF3D004EBB8
S32500012720C40305EB83035B7D03F0FF09002BEAD1682303FB04731B7D13F0020FE3D16823B1
S3250001274003FB04730322996805A800F045FB04EBC40305EB83031A6A059B9A42D3D8682398
S3250001276003FB047898F8143043F006036FF3000388F814303388002BC5D04FF0680B0BFB6C
S32500012780047B0BF1210BDFF81CA00DF10808ADE707B0BDE8F08F7047742AFE1F2C280200B3
S325000127A04C1FFE1F5028020038B5084B9B784BB10024064DE0B2FFF72FFF0134AA78E3B2A8
S325000127C09A42F7D8FFF774FF38BD00BF742AFE1F2DE9F04F83B08D4B9B88002B00F011813F
S325000127E08B4D00248B4EA846884F56E003230A2229690DF1070000F00BFB00286AD19DF82B
S325000128000730012B66D1032105F1100000F0D4FA04EBC40306EB8303DB684FF0010B62E032
S325000128201FFA89F2002A00F081809AF821109AF8003099427DD16823754903FB0413013A9B
S3250001284013FA82F0834271D093F8222013F8011F9142F7D06DE023F0FF03BA7B1343CAF8AB
S3250001286018307FE001238AF8633004EBC40306EB83035B7A8AF8643004EBC40316F8230072
S3250001288005F11801FFF7C4FD002800F09A8001346835BB88A34240F2B48004EBC40306EB32
S325000128A083035B7D002BF2D0682303FB04831B7D13F0100FEBD104EBC40306EB8303187D7E
S325000128C009F0B4F88146682303FB04831B7D13F0080F8BD104EBC40306EB8303DB68002BCC
S325000128E0D5D04FF0000BAA4604EBC40306EB8303DA680323E9680DF1070000F089FA18B9C3
S325000129009DF80730012B14D004EBC40306EB83031A690323DAF80C100DF1070000F078FAA9
S3250001292020B99DF80730012B3FF47AAFBBF1000FADD004EBC40306EB83035B68CAF8183031
S325000129403A7B7AB104EBC40206EB8202127A4AB104EBC40206EB82025268D2B2797B8A42B7
S325000129603FF479AF04EBC40206EB8203187A682303FB048393F8201060F3000183F820106E
S325000129808AF8619016F8223003EB8303224A02EBC30393F82730002B3FF46EAF04EBC403B7
S325000129A006EB83031B7ADBB2022B3FF45BAF04EBC40306EB83031B7ADBB2032B7FF45CAF12
S325000129C050E7682303FB04831A7D6FF3C3021A751FFA89F27AB1682101FB04F10C48431874
S325000129E001300144013A11FA82F193F8212003F8012B8B42F9D1032105F10C0000F0DCF92C
S32500012A0045E7FFF7AFFC03B0BDE8F08F742AFE1F4C1FFE1F2C280200B427020070B594B02C
S32500012A2006461C460091C90F9DF8083061F300038DF80830104608F0F9FF05468DF8490038
S32500012A408DF84B409DF860308DF84C30402200210DF109000FF052FA2A4619990DF109003B
S32500012A600FF03EFA002C0CBF082340239DF849209A4202D9022014B070BD69463079FFF77D
S32500012A80C7FCF8E7014B1860704700BF3000002084B070B504AC84E80F0000238DF81C308B
S32500012AA08DF81D309DF8543005939DF85530012B03D0BDE8704004B070479DF866300B93EA
S32500012AC09DF867300C939DF865300D939DF869300A939DF864300E939DF87B30012B24D065
S32500012AE00C248DF81C409DF857001A494B1C1D310025012613F8012C824204BF1C783546A0
S32500012B0002338B42F6D10DB18DF81C409DF81C1004A808F01BFF9DF81D1004A808F058FF0A
S32500012B2015A904A800F0C6FBC3E79DF8773010939DF8783011939DF8763012939DF87A30EA
S32500012B400F939DF8753013930D238DF81C308DF81D30DBE7CC2B0200044B00221A80022130
S32500012B6099709A809A711A819A727047742AFE1F30B593B004460D464822002168460FF00A
S32500012B80BDF9064823011A1900EB820295606946104608F053FE13B030BD00BFEC2AFE1F7F
S32500012BA000230B6002280CD810B50C4600EB00104422044901EB800120460FF091F92460CD
S32500012BC010BD7047EC2AFE1F10B5144C21460020FFF7E6FF124B1A7862605B78DBB2012B73
S32500012BE00ED0104C21460120FFF7DAFF0C4B93F82820626093F82930DBB2012B07D010BD10
S32500012C000020FFF77FFB0020FFF770FBE9E70120FFF778FB0120FFF769FBF0E7EC2AFE1FBD
S32500012C20B4270200302BFE1F70B584B005460E461446002303931378022B04D16378022B98
S32500012C400FD104B070BD0123836013788DF80C300B6801938B68DB43029301A908F038FED4
S32500012C60ECE70223AB6063788DF80C3073680193F368DB43029301A9284608F029FEE0E733
S32500012C802DE9F04F85B083460024ADF80C40484D0746484EA04623E004EB840306EBC30337
S32500012CA0DB78DBB21E2B36D9012385F8403032E0C1F80480C1F8008040F2FF738B606FF04E
S32500012CC06043CB608DF80C8001238DF80D3003AA0198FFF7A9FF013444351437022C60D0ED
S32500012CE0A24604EB840206EBC20316F8322001956A609A7885F8412085F840805B78DBB26D
S32500012D00012BE8D104EB840306EBC30393F82730DBB2012BC0D04FEA8A0909EB0A0316F894
S32500012D2033104246019808F01DFD3946D14406EBC90999F80430DBB2012BB9D0BBF1000FFD
S32500012D40B6D03B7C042BB3D0032B1AD8DFE803F002070D138DF80C808DF80D80B7E78DF834
S32500012D600C8001238DF80D30B1E701238DF80C308DF80D30ABE702238DF80C308DF80D3061
S32500012D80A5E7C7F80480C7F8008040F2FF73BB606FF06043FB608DF80C8001238DF80D300B
S32500012DA095E70621002000F023F905B0BDE8F08FEC2AFE1FB427020000B583B000238DF8C4
S32500012DC0073009F0DDF910B101238DF807309DF8070003B05DF804FB30B583B004460D46ED
S32500012DE003238DF80730002300931146684609F0C7F930B101238DF807309DF8070003B066
S32500012E0030BD0099491B216000238DF80730F4E730B583B00446154603228DF807200022D6
S32500012E2000921A466846FFF7D7FF8DF807009DF807302BB9009BAB422CBF01230023237096
S32500012E409DF8070003B030BDF0B49DF81070012A75D9032F77D802F10045013D30F9154088
S32500012E609C423ADA023A96B231F91520022F24D0E41A012F53D07300C5180B44B3F9023083
S32500012E8031F916105B1A04FB03F4B5F9023030F91600181A94FBF0F4101B2C4B9842B8BFB9
S32500012EA0184647F6FF739842A8BF1846023FFFB2012F45D820EAE07042E030F9162031F91B
S32500012EC01600101A181A214B9842B8BF184647F6FF739842A8BF1846ECE7861CB0F90240B0
S32500012EE0A342C8BF012514DD0135ADB2AA4212D036F9024FA342F7DC6E1EB6B231F915205A
S32500012F00B0F900509D42C4BFB1F900202C46E41AAFE70125F0E7002214461646A9E7B0F971
S32500012F2000509D42A7DDB1F90000084B9842B8BF184647F6FF739842A8BF184600E00020DD
S32500012F4000B2F0BC70470020FAE700BF0080FFFF08B50F4B20F00040586083F8481051B123
S32500012F60531E0C48013952FA81F213F8011F00F8011F9342F9D1084B187800231A460749F4
S32500012F8000F2045009F02CFB003018BF012008BD380000203F0000203400002000000D05BA
S32500012FA008B500231A46194640F6090009F018FB003018BF012008BD08B10320704708B5E3
S32500012FC00B6803F1080293F848105868FFF7C0FF002008BD08B509F0CFFB002008BD08B51A
S32500012FE000F1080201790068FFF7B2FF08BD00002DE9F04184B005460E460AF01DFF80B918
S3250001300037480BF09BF80378364A1370022B1ED8344B187801281FD90124204604B0BDE8E7
S32500013020F0810AF009FF012803D00AF005FF0E2803D1CB200BF082F8E5E70AF0FDFE0F28BA
S32500013040F7D00AF0F9FE1028F3D00020DBE74F2116200EF03DFEDBE700EB8003224A02EB6C
S32500013060C3035C78E4B2012C01D00124D5E713468200111803EBC10191F8278018F1000845
S3250001308018BF4FF00108CF78FFB21E2F94BF002701278DF808508DF809808DF80A70134BDB
S325000130A0039302AB40F20552114900F2045009F097FA0028B1D18DF804608DF805808DF8F1
S325000130C00670084B187801AB40F20652094900F2045009F085FA041C18BF01249DE700BFEB
S325000130E0EE009D0034000020B42702003800002005050E0506050F0510B5A1F12003DBB272
S32500013100072B17D90C46A1F12803DBB2062B19D9A1F12F03DBB2052B16D9A1F13503DBB200
S32500013120042B13D9A1F13A03DBB2032B8CBF0C46012400E00524404B1A7843689A4207D09D
S32500013140022010BD0424F6E70324F4E70224F2E70AF072FE98B9A3B2DA4303EB02239BB2E6
S325000131601A0292B242EA13224FF0021133480BF075F8B0FA80F0400920BB0120E1E70AF031
S325000131805BFE012803D00AF057FE0E2810D1A3B2DA4303EB02239BB21A0292B242EA1322DA
S325000131A00221D0200BF05AF8B0FA80F04009E3E70AF042FE0F28EAD00AF03EFE1028E6D02C
S325000131C00020D9E70AF038FE98B9A4B2E34304EB0324A4B2220292B242EA14224FF0021183
S325000131E017480BF03BF8B0FA80F0400980F00100A7E70AF021FE012803D00AF01DFE0E2879
S3250001320010D1A4B2E34304EB0324A4B2220292B242EA14220221D2200BF020F8B0FA80F0D2
S325000132204009E3E70AF008FE0F28EAD00AF004FE1028E6D00020D9E734000020AC005B005E
S32500013240AE005D0010B58AB0184B1C7843689C4202D002200AB010BD0B7BADF81330CB7AAF
S325000132608DF815300B7C8DF816304B7B8DF817308B7B8DF81830137BADF81C30D37A8DF875
S325000132801E30137C8DF81F30537B8DF82030937B8DF8213001AB4FF40062054940F6090011
S325000132A009F09EF9003018BF0120D3E7340000200008180838B505460C46C9781D2902D82E
S325000132C0FFF71AFF38BD01F001FB212809D9E3781F2BF7D004F11602611D2846FFF7B2FFBF
S325000132E0F0E7E1782846FFF707FFEBE7034658B161B16AB10020186019615860986018758D
S3250001330058759875DA607047012070470120704701207047F8B504460F46164609F030F989
S32500013320257D0DBB01232375236801332269934206D903250023237509F024F92846F8BD46
S32500013340E36860681A46394600FB03600EF0C8FD6368013363602269934224BF0023636068
S32500013360236801332360E5E70225E5E7F8B504460E46174609F004F9657DF5B9012363751B
S32500013380236833B904250023637509F0FBF82846F8BDE368A1681A4601FB037130460EF0E4
S325000133A09FFDA3680133A3602269934224BF0023A3602368013B2360E5E70225E5E770B591
S325000133C0457DA5B916460B46044601224275026822B9042500236375284670BDC1688068E0
S325000133E00A4600FB016118460EF07AFDF2E70225F2E738B504460D4609F0C2F82268AA42BA
S325000134000FD301236375A3685B1906D22169994298BF5B1AA360551B2560002363751C46EA
S3250001342000E0012409F0AEF8204638BD2DE9F04F87B0604C2146002007F060FE002007F05B
S3250001344095FE2146012007F059FE012007F08EFE00230493059301228DF8142002930393FF
S3250001346000930193544C04F548774FF0440A4FF0590998461FE0514648460EF029FC23E070
S3250001348006AB03EB850545F818BC11E0CDF810804FF0010B8DF815B08DF8168004AA3146D0
S325000134A0284607F08DFE06AB03EB850545F818BC1434BC422ED0A346257806AB03EB8503EA
S325000134C053F8106C032ED6D89BF80C30002BEFD106AB03EB850353F818BCBBF1000FD5D0DF
S325000134E0CDF810B08DF8158001238DF8163004AA3146284607F064FE0BF1010BBBF1070F81
S32500013500BED906AB03EB850545F8188C013645F8106CCDE74FF47A61002007F045FE0023C4
S325000135201A461946184607F06DFE4FF47A7300220121104607F066FE4FF47A61012007F0AA
S3250001354033FE00231A461946012007F05BFE4FF47A7300220121084607F054FE4FF4FA6335
S3250001356000220221104607F04DFE40F6B83300220321104607F046FE4FF4FA63002202218A
S32500013580012007F03FFE40F6B83300220321012007F038FE002007F0FDFD002007F0F0FD05
S325000135A0012007F0F7FD012007F0EAFD07B0BDE8F08F00BF303202005C2802002DE9F04F20
S325000135C085B0484C2146002001F002FA2146012001F0FEF94FF408700AF0B0FD028846F60F
S325000135E0B3539A4205D100230393DFF808914A460AE0002001F0EAFA012001F0E7FAF2E7A8
S3250001360001331432282B09D0117B0029F8D1117804A800EB410121F8043CF1E70025029530
S325000136204C46DFF8D480304E2F4621E04B46002203E001321433282A0ED05FFA82FE197828
S325000136408142F6D19AF801B059788B45F1D1197B0029EED105F806E09AF80D3098F8002055
S325000136609A4238BF88F8003001351434282D24D0A2462078237B002BD8D16378ADF8063051
S325000136808DF8047004AB03EB400333F8042CABB29A4204BF01238DF8043004AB03EB400B2E
S325000136A03BF808AC5FFA8AF1A95501AA01F054FA0AF1010A2BF808ACD6E700220B49272009
S325000136C005F08AFF00220A49282005F085FFFFF7ADFE272005F098FF282005F095FF05B035
S325000136E0BDE8F08FF42F0200B82BFE1F5D370100693701005C280200980000202DE9F843B5
S3250001370081460E46114C0025DFF84C80104F03E001351434282D0DD014F80C3CB342F7D15F
S325000137202378002BF4D108EB4502795D304601F041FAEDE7484607F023FD064A52F82630DC
S32500013740013342F82630BDE8F88300BF68280200B82BFE1F102DFE1FE02BFE1F08B50021CD
S325000137600846FFF7CBFF08BD08B501210846FFF7C5FF08BD38B505460C46084605F050FFA7
S32500013780034B53F82550204605F03EFF284638BD102DFE1F2DE9F0410446884616461D46A1
S325000137A01946FFF7E7FF3368834201D1BDE8F0810746012388F80030284605F031FF114A70
S325000137C00023DFF84CE0104803E001331432282B0DD012F80C1CA142F7D111780029F4D183
S325000137E003EB830130F813C02EF811C0EDE7074A52F82430013342F82430284605F004FF73
S325000138003760D3E768280200E02BFE1F8C000020182DFE1F2DE9F04F89B0039002910020B4
S325000138208DF81F008DF81E00634D27232A460DF11F01FFF7AFFF614C282322460DF11E0191
S325000138400120FFF7A7FF2A685D4B1B68D31A049322685C4B1B68D31A05939DF81F30012B1A
S3250001386027D09DF81E30012B23D0049B0F2B1DD9059B0F2B1AD9504B1A68514B1A604F4BDF
S325000138801A68504B1A6003990B780133DBB20B704D4A12789A4205D200230B704B4A1368AD
S325000138A001331360039B1878FEF706FC09B0BDE8F08F474C474F484DDFF82C9104F5487B4A
S325000138C01EE02B886B802E46B5F80280029B23B192F810A0BAF1000F2AD1328957F8043FF5
S325000138E09B1A43443B603D4AA2FB03384FEA1818A6F8088014340A3509F101095C45B4D04C
S325000139002246237B002BDCD0039B1978637B9942D9D1049B0F2BD6D9059B0F2BD3D999F892
S32500013920003003EB83032C4931F813306B80CAE7D08900F222200AF001FC78B1B0F90030D9
S32500013940B3F1FF3F0AD0AAF1030ABAF1070F30D8DFE80AF0072F2F2F122F1B1B0023F380D1
S32500013960BBE703220092B5F90230811DFFF76CFAE880B6F80680B0E703220092B5F9023043
S32500013980811DFFF761FAE880F3E76A8803FB02F3134AA2FB0323B0F90420124981FB020143
S325000139A0D217C2EBA11202EB934323EAE373EB80DFE70023EB80DCE78400002088000020C3
S325000139C09C000020A000002098000020940000205C2802006C2CFE1F182DFE1FC94216B288
S325000139E083DE1B43D34D6210B82BFE1F70B504460D46094B1B785BB1084B1B683BB9074E9B
S32500013A0029462046FFF706FF3368002BF8D070BDFFF700FFFBE700BF980000209400002012
S32500013A20F0B593B004460D4616461F4600EB00121C4B03EB82039E6003F0AAFE1A4B18420A
S32500013A400FD01A4B03EBC40250600321104608F097FB85B1042D02D12046FEF75FFC13B000
S32500013A60F0BD124800EBC40300225A600321184608F086FBEDE739463046FFF79DFA03282E
S32500013A80EDD104EB04106946064B03EB800007F0D5FE69462046FEF7ADFC6846FFF79FFA36
S32500013AA0DDE700BFEC2AFE1F00FC2000A82EFE1F0A2900D070472DE9F04184B0044603F0C8
S32500013AC067FE06462D4B184202D104B0BDE8F0812B4800EBC4004660032108F051FB16F089
S32500013AE0400F04D116F0080F32D0002520E0254B03EB04139B681B68042BF3D90425214BCC
S32500013B0003EB041805E00135D8F808301B689D42E8D2EFB23946204603F028FE0028F2D0CC
S32500013B203946204603F03CFEEDE70135032D0FD0EFB23946204603F019FE0028F5D0394657
S32500013B40204603F02DFE29462046FFF711F8ECE70D4B93E8070004AB03E9070003EB840045
S32500013B6050F80C4C204604F069F816F4001FACD0236A43F400132362A7E700BF00FC200079
S32500013B80A82EFE1F080EFE1F40270200002343618361C3610362042280F824200360436073
S32500013BA08360C360027470472DE9F04FA5B081466C4B1B783BB96C4D00246C4EDFF8B0B14D
S32500013BC0DFF8B0A177E0674B00221A70FEF7C4FFFEF7FAFF1AA8FFF7D9FF1AA8FFF750F8CB
S32500013BE0614F624C0DAE04F1200C354620686168A268E3680FC510342E466445F5D12068E0
S32500013C00616803C66C4607F110050FCD0FC40FCD0FC40FCD0FC42B68236097E80F00FEF7A6
S32500013C2037FFA5F14007514B03F128040DAE03F1480C354620686168A268E3680FC5103472
S32500013C402E466445F5D12068616803C66C4607F154050FCD0FC40FCD0FC40FCD0FC42B68BD
S32500013C60236007F144030FCBFEF712FFA3E7A3001993234416F83330012139F8230007F07D
S32500013C80E9FF199A904416F8383009EB83030121588807F0DFFFC7F810B00021384607F0D2
S32500013CA03FFEC7F814A00021384607F044FE01344435022C53D0A04604EB840306EBC30264
S32500013CC016F833302F466B605378DBB2012BEED104EB840316F8333039F82330592BDAD050
S32500013CE004EB840316F8333009EB83035B88592BD1D004EB840316F83330DBB2012B19D0CB
S32500013D005AB2002AB3D0022BC5D1A3001993234416F83330012139F8230007F09BFF199A3F
S32500013D20904416F8383009EB83030121588807F091FFB0E7A3001993234416F8333001214F
S32500013D4039F8230007F086FF199A904416F8383009EB83030121588807F07CFF9BE725B04A
S32500013D60BDE8F08FCC0CFE1FEC2AFE1FB4270200213A0100B13A010008B50B46024602492A
S32500013D8018460EF0C3F808BDE82B020010B588B055230793E0230693012305931E230493EC
S32500013DA000240394C37A02935023019306230093082322464FF4FD61204600F03FFC08B02F
S32500013DC010BD0000F0B58BB005460A46C37A112B2BD0F42B6ED0062B00F08A80F12B27D184
S32500013DE0037B873B1E2B46D8DFE813F0D2004500EC00450045004500450045004500450065
S32500013E000401450045004500450045001E014500450045004500450045009F004500450057
S32500013E204500B900370145004F01037BF02B24D0552407940694059404940394AB7A0293F3
S32500013E407F27019703260096082300224FF4FD61104600F0F3FB079406940594049403943F
S32500013E60AB7A029301970096082300224FF4FD61104600F0E3FB0BB0F0BD09A95068FFF779
S32500013E807BFF5523079306939DF8253005939DF824300493F0230393112302936223019369
S32500013EA005230093082300224FF4FD61104600F0C5FBE0E7037B492BBAD109A99068FFF768
S32500013EC05BFF55230793069305939DF82430049349230393F423029362230193042300933D
S32500013EE0082300224FF4FD61104600F0A7FBC2E7037B002B9CD1402307931D23069301232C
S32500013F0005930024049406230393622302930D23019310230093082322464FF4FD61204649
S32500013F2000F08CFB654B1C80A5E75F23079356230693452305939E240494F1230393622374
S32500013F4002931D23019310230093082300224FF4FD61104600F072FB584B1C808BE7322384
S32500013F600793302306930593A2240494F12303936223029309230193102300930823002227
S32500013F804FF4FD61104600F059FB4C4B1C8072E74523079334230693302305938724049433
S32500013FA0F1230393622302930E23019310230093082300224FF4FD61104600F03FFB3F4BB3
S32500013FC01C8058E73023079332230693382305933923049389230393F1230293622301933A
S32500013FE003230093082300224FF4FD61104600F025FB40E7452307933423069330230593A9
S3250001400091240494F1230393622302930E23019310230093082300224FF4FD61104600F0C9
S325000140200DFB264B1C8026E7342307932E2306933123059397240494F12303936223029379
S32500014040102301930093082300224FF4FD61104600F0F4FA194B1C800DE755230793302384
S3250001406006933223059348230493A3230393F12302936223019306230093082300224FF447
S32500014080FD61104600F0DAFAF5E600200790069080230593A5240494F12303936223029319
S325000140A00923019310230093082302464FF4FD6100F0C4FA014B1C80DDE600BFA400002083
S325000140C0F0B589B0994B1B88972B00F0EA8009D8872B77D0912B00F0A180002B00F00D8108
S325000140E009B0F0BDA22B56D0A52B00F0C2809E2BF6D146230793542306933426059631276E
S3250001410004974D230393432302934525019521230093082300224FF4FD61104600F08EFA69
S3250001412007950696302405940497039702945323019322230093082300224FF4FD61104662
S3250001414000F07CFA412307930696322305930494362303930294392301932323009308235A
S3250001416000224FF4FD61104600F068FA5523079306930593049303930024029401952423C6
S325000141800093082322464FF4FD61204600F056FA664B1C80A4E755230793069305930493F9
S325000141A03423039330230293019321230093082300224FF4FD61104600F040FA5B4B002282
S325000141C01A808DE7412307933423069332230593302304933622039202933923019321234F
S325000141E00093082300224FF4FD61104600F026FA5523079306930593049303930293452364
S32500014200019322230093082300224FF4FD61104600F014FA454B00221A8061E74323079355
S32500014220392306933022059233210491372103910292019321230093082300224FF4FD61D7
S32500014240104600F0FBF95523079306930593049303930293472301932223009308230022F5
S325000142604FF4FD61104600F0E9F9304B00221A8036E7552307930693059304936223039325
S32500014280EF2302930623019321230093082300224FF4FD61104600F0D1F9244B00221A80B3
S325000142A01EE768230793202406944923059353230493462303935423029301942123009367
S325000142C0082300224FF4FD61104600F0B7F9552307930693059304930394029479230193BC
S325000142E022230093082300224FF4FD61104600F0A5F90E4B00221A80F2E608230793302209
S3250001430006920593052204926422039263220292122201922122009200224FF4FD611046C0
S3250001432000F08CF9014B00221A80D9E6A40000202DE9F0410746154D0024154EA04603E030
S3250001434001341035082C1FD004EB44039B5DBB42F6D12A88002AF3D0AB8801339BB2AB8049
S3250001436069880131B3EB610FEADBA5F80480AB7A5B425BB2AB7213FB02F2E988114489B230
S32500014380A0B207F0EBFDDBE7BDE8F081C02EFE1F902B020008B50020FFF7CAFF4FF40071F5
S325000143A0002003F0C9FF08BD08B50120FFF7C0FF4FF40071012003F0BFFF08BD08B5022099
S325000143C0FFF7B6FF4FF40071022003F0B5FF08BD08B50320FFF7ACFF4FF40071032003F09E
S325000143E0ABFF08BD08B50420FFF7A2FF4FF40071042003F0A1FF08BD08B50520FFF798FF30
S325000144004FF40071052003F097FF08BD08B50620FFF78EFF4FF40071062003F08DFF08BDEA
S3250001442008B50720FFF784FF4FF40071072003F083FF08BD7047704700B583B002230093F5
S32500014440044B054A0549064802F0D0F803B05DF804FB00BFBC310200C4310200B8310200CA
S325000144606431FE1FF0B583B000258DF807502B462A4A01212A4801F08BFE2946284601F0E9
S3250001448095FE592007F070FBFEF78AFDFFF7D4FF07F070FE009507F023FEFFF78FF80820AB
S325000144A007F034FC0F2007F0E9FC07F065F8FFF7C1FFFDF7DFFD1B4807F056FE1A48FEF7E4
S325000144C0E1FA01210DF10700FFF790FAFDF7B2FDFDF7AEFD154F164E01E0FEF779F9384683
S325000144E008F006F80321684607F04AFEFEF772FD01210DF10700FFF78DF9FEF755F9FFF76E
S325000145009AFFFDF7F9FD009C621B33889A42E4D3FDF791FDFDF78DFD2546DEE758040020FE
S32500014520380EFE1F732001003920010001000080740CFE1F032801D904207047F8B504462E
S325000145400B4E47003D1806EBC5052979284607F081FD6B692A69E968284607F059FD012289
S3250001456004492144284607F047FD0020F8BD00BFD00CFE1FA800002070477047F8B504461F
S32500014580032A15D8DFE802F002151E271B4F1C4D4600331805EBC303395C1879FDF768FD4C
S325000145A0264405EBC60501223919287906F0B2F9F8BD00EB4004124B03EBC4042079FFF792
S325000145C0DBFFF5E700EB40040D4B03EBC4042079FFF7D3FFECE70B8E9BB2002BE8D0094B90
S325000145E053F820400849204606F04BFC0028DFD101220549204606F00CFCD9E7A8000020E0
S32500014600D00CFE1F382C02001500030008B513460A4601460020FFF7B1FF08BD08B51346CE
S325000146200A4601460120FFF7A9FF08BD08B513460A4601460220FFF7A1FF08BD30B585B014
S325000146409DF820408DF808409DF824408DF809409DF828408DF80A409DF82C408DF80B402D
S325000146609DF830408DF80C409DF834408DF80D409DF838408DF80E409DF83C408DF80F40BD
S3250001468000EB0015104C54F82540C4B11D46144621F0004100EB001002AB01930023009390
S325000146A02A4641EAC471084C04EB8000FEF7B6F9034628B102280CBF0F23082300E008233D
S325000146C0184605B030BD00BFEC2AFE1F08B5072800F2EE80DFE800F004203E5B7895B2CF93
S325000146E009F0AAFB10B909F029FD08BD09F0A4FB012803D009F0A0FB0E2803D1002009F01D
S325000147001DFDF2E709F098FB0F28F7D009F094FB1028F3D00020E8E709F08EFB20B94FF009
S32500014720021009F00BFDE0E709F086FB012803D009F082FB0E2803D1022009F0FFFCD4E7D1
S3250001474009F07AFB0F28F7D009F076FB1028F3D00020CAE709F070FB18B9564809F0EEFCFA
S32500014760C3E709F069FB012803D009F065FB0E2803D17D2009F0E2FCB7E709F05DFB0F2832
S32500014780F7D009F059FB1028F3D00020ADE709F053FB18B9484809F0D1FCA6E709F04CFB14
S325000147A0012803D009F048FB0E2803D1952009F0C5FC9AE709F040FB0F28F7D009F03CFB5E
S325000147C01028F3D0002090E709F036FB18B93B4809F0B4FC89E709F02FFB012803D009F091
S325000147E02BFB0E2803D1052009F0A8FC7DE709F023FB0F28F7D009F01FFB1028F3D0002019
S3250001480073E709F019FB18B92D4809F097FC6CE709F012FB012803D009F00EFB0E2803D1F7
S32500014820AA2009F08BFC60E709F006FB0F28F7D009F002FB1028F3D0002056E709F0FCFAAB
S3250001484018B9204809F07AFC4FE709F0F5FA012803D009F0F1FA0E2803D1B22009F06EFC6C
S3250001486043E709F0E9FA0F28F7D009F0E5FA1028F3D0002039E709F0DFFA18B9124809F024
S325000148805DFC32E709F0D8FA012803D009F0D4FA0E2803D1C92009F051FC26E709F0CCFA0C
S325000148A00F28F7D009F0C8FA1028F3D000201CE700201AE768004E006C004F006E005300C7
S325000148C08800460092005500EF009E0010B50420FFF7FCFE0488240A0420FFF7F7FE008865
S325000148E044EA002080B210BD4FF0E023D3F8882D42F47002C3F8882DD3F8342F22F0804288
S32500014900C3F8342F084B094A5A605A6842F220121A604FF6FF729A60054AD2F8003843F438
S32500014920F803C2F8003870470020054020C528D900D000401B4A1369C3F30343591C1369A3
S32500014940C3F30363013B052B2BD8DFE803F025030D2A2A12134BD3F8083203F00103002BEB
S32500014960114A18BF134618E00E4BD3F808330F4B13E00C4AD2F80836D2F80826C2F30442B0
S3250001498002F110000A4A02FB00F2C3F3022301335B00B2FBF3F300E0054BB3FBF1F3054ABC
S325000149A0136070470040064000127A00006CDC02005A6202180DFE1F4FF0E021D1F80C2D28
S325000149C092B2024B1343C1F80C3D70470400FA0570B584B006460D465D4B53F820404C2373
S325000149E08DF80C304D238DF80D300023029304AB034402A913F8040C01F050FC2B78029ACD
S32500014A00DA400292226C22F060025B0103F06003134323646B78002B08BF0123626C22F077
S32500014A20FF0213436364226C22F00C02AB789B0003F00C0313432364226C22F00302EB78FE
S32500014A4003F0030313432364D4F8902022F040022B799B0103F040031343C4F890306B797D
S32500014A60302200924FF4405201923A4A926904A901EB860151F8101C22EA0102002E43D07F
S32500014A80012E4FD0334B9A61AA79012100914FF4807101919B6904A901EB860151F8101C13
S32500014AA023EA0103002E39D0012E45D0294A9361D4F8903023F00403EA79002A14BF0422D0
S32500014AC000221343C4F89030D4F8902022F003022B7A03F003031343C4F89030D4F8943048
S32500014AE023F008036A7A002A14BF082200221343C4F8943036B9AB7A1BB3164A536843F45A
S32500014B000023536004B070BD1B0103F03003134310498B61AA798B6923F0010302F00102D7
S32500014B201343C3E71B0303F44053134309498B61AA798B6923F48073120202F480721343BF
S32500014B40B4E7044A536823F400235360DAE700BF442C02000080044030B4144B53F8204019
S32500014B6050881578A0F570639BB2052B0BD8104A536823F4E02353605368A0F5706043EAD2
S32500014B8000405060152004EB8101D1F8083100F03F0023F07F030343002D14BF40220022E8
S32500014BA01343C1F8083130BC704700BF442C020000800440044B53F82030623153F82130F5
S32500014BC0C3F30B0313807047442C02002DE9F04782B04E4B53F82040D4F89460C6F380068C
S32500014BE0D4F8943003F00309D4F89080656CEDB2D4F8943043F00303C4F89430D4F89430FA
S32500014C0043F00403C4F89430D4F8903023F04003C4F89030636C23F0FF0343F00C03636488
S32500014C200023C4F8B430C4F8B830C4F8BC30C4F8C030C4F8C430C4F8C830C4F8CC304C2228
S32500014C408DF804204D228DF805200093276C4FEA571A02AB1844694610F8040C01F01EFBE1
S32500014C60009B0AF0030A23FA0AFA294A924512D9284A934208D9284A934245D9274A934262
S32500014C8094BF0323002300E00123226C22F0600242EA43132364D4F8943043F08003C4F860
S32500014CA09430D4F8943013F0800FFAD1236C23F0600307F060071F432764D4F8943023F049
S32500014CC00403002E18BF04261E43C4F89460D4F8943023F0030349EA0303C4F89430D4F858
S32500014CE0903023F0400308F0400848EA0303C4F89030002D08BF0125636C23F0FF031D4345
S32500014D00656402B0BDE8F0870223BEE7442C020040787D0181F0FA0203E1F50507C2EB0B79
S32500014D20074B5B69DBB2042B06D0802B06D0012B0CBF01200420704702207047032070479D
S32500014D4000E00740044BD3F8000110F080701CBF024B1868704700BF00400640502FFE1FDA
S32500014D6010B584B00C46002944D0444BD3F80031C3F34063002B7CD1404AD2F8001121F4CE
S32500014D800001C2F800114FF08061C2F800113C4A0021116000286FD0627A120202F4E062AE
S32500014DA0217A01F007010A433448C0F80421E279120102F03002A179C90001F008010A43F6
S32500014DC06179890001F004010A43C0F808212279012A2FD051B211B3022A36D02268284B8A
S32500014DE01A60284CFFF7AEFF00283DD1002C39D0013CF7E700238DF804308DF80C300122D5
S32500014E008DF808208DF809208DF805208DF8063002238DF807301C4B00936C46A5E7227B15
S32500014E20002A18BF4FF4000343F00103134AC2F80031D3E7227B002A18BF4FF4000343F0D4
S32500014E4001130E4AC2F80031C8E7227B002A18BF4FF4000343F4403343F00103074AC2F875
S32500014E600031BBE7032005E0002C14BF0020032000E0022004B010BD0020FBE70040064003
S32500014E80502FFE1F88E7300000127A00074BD3F8000210F0807007D0D3F8080200F0010098
S32500014EA00028034B18BF1846704700BF0040064000127A0010B582B00A4600293DD02D4BC3
S32500014EC0D3F80032C3F34063002B4DD12949D1F8004224F40004C1F800420024C1F8004279
S32500014EE0002844D09178090201F4E061507800F0070001431F48C0F80412117801F0010171
S32500014F00C0F80812507991791279A24214BF03220122A0420CBF184604200243A14218BF2D
S32500014F204FF400031343134AC2F800326424FFF7ADFFA0B98CB1013CF9E700228DF80420DD
S32500014F4001238DF805308DF806208DF801308DF802308DF800306A46B1E7032005E0002C23
S32500014F6014BF0020032000E0022002B010BD0020FBE700BF00400640044BD3F8000310F02F
S32500014F8080701CBFD3F808330148704700400640006CDC0210B582B00C46002933D02A4B7F
S32500014FA0D3F80033C3F34063002B47D1264AD2F8001321F40001C2F800134FF08061C2F846
S32500014FC0001300283DD0A278120202F4E062617801F007010A431C49C1F80423227802F02C
S32500014FE00302C1F80823A1796279002A14BF01220922002918BF4FF400031343124AC2F8CF
S32500015000003314240EE001238DF8053000228DF806208DF801308DF802308DF800206C46C1
S32500015020BDE7013CFFF7A8FF18B9002CF9D1032005E0002C14BF0020032000E0022002B026
S3250001504010BD0020FBE700BF0040064008B50F4BD3F8003613F0807301D1184608BDFFF73C
S3250001506071FE03460028F8D0084AD2F80806C0F302200130B3FBF0F0D2F80836C3F30443BE
S32500015080103300FB03F04308E7E700BF0040064030B585B00D4699B13D4BD3F80046C4F373
S325000150A04064002C70D1D3F8002622F40002C3F800264FF08062C3F80026A0B9002064E02F
S325000150C000238DF804308DF80B3001228DF808208DF809208DF8053007228DF806208DF89C
S325000150E0073001ADD8E7FFF72DFE6B791B0203F4E0632A7902F0070213432549C1F8043654
S325000151006B781B0203F4E063AA78120402F4F8121343C1F808362B78012B16D05AB24AB10D
S32500015120022B1DD04FF47A74FFF790FF38BB24B3013CF9E7EB79002B18BF4FF4000444F0D0
S325000151400104134BC3F80046ECE7EB79002B18BF4FF4000444F001140D4BC3F80046E1E7FA
S32500015160EB79002B18BF4FF4000444F4403444F00104074BC3F80046D4E7032005E0002C54
S3250001518014BF0020032000E0022005B030BD00BF004006402DE9F04180460D468C78013470
S325000151A04E7806FB04460F7807FB0447CB78013B052B1CD8DFE803F00312151B1B18FFF738
S325000151C0C1FD0009B8F1020F48D0B8F1030F78D0B8F1010F0DD00020BDE8F081FFF756FE16
S325000151E0EFE7FFF7C9FEECE7FFF730FFE9E70020E7E7EA7802EB4201544B53F821301B096E
S3250001520004FB03F48442C0F08F800B464F4901EB83035B681B0906FB03F68642C0F0868052
S3250001522002EB420301EB83039B681B0907FB03F787427DD3AB781B0403F47023120602F0B1
S32500015240706213432A7802F00F0213436A781201D2B213433E4A53610020BDE7EA7802EB06
S3250001526042013C4B53F821301B0904FB03F4844260D30B46374901EB83035B681B0906FB83
S3250001528003F6864258D302EB420301EB83039B681B0907FB03F7874250D3AB781B0403F42F
S325000152A07023120602F0706213432A7802F00F0213436A781201D2B21343254A93610020D5
S325000152C08AE7EB7803EB4301234A52F82120120904FB02F4844233D30A461F4901EB8202C5
S325000152E05268120906FB02F686422BD303EB430201EB82029268120907FB02F7874223D3A1
S32500015300AA78120402F470221B0603F0706313432A7802F00F0213436A781201D2B21343BF
S325000153200B4AD361002057E7012055E7012053E7012051E701204FE701204DE701204BE76F
S32500015340012049E7012047E7012045E7582D020000400640AC2D0200042D020038B5054606
S32500015360FFF7DEFC2946FFF715FF044678B9E8780A220849013A0B69C3F30363984203D00D
S32500015380002AF7D1032402E0002A08BF0324204638BD00BF0040064010B504461B4B1B695A
S325000153A0C3F30363013B052B1ED8DFE803F00314171D1D1AFFF7C6FC144B1B69C3F3034395
S325000153C00133B0FBF3F0012C10D063B213B1022C14D0002010BDFFF759FDEDE7FFF7CCFD40
S325000153E0EAE7FFF733FEE7E70020E5E7074B1B69C3F303130133B0FBF3F0EBE7034B1B69EC
S3250001540003F00F030133B0FBF3F0E3E70040064008B5084BD3F8D801C0F3807040B103F52E
S3250001542088331B681B0E14BF01200020FFF7B4FF08BD00BF0050064008B50F4B1B6AC3F3D5
S325000154400363062B15D8DFE803F004080B0E141411000220FFF7A0FF08BDFFF773FCFBE7E6
S32500015460FFF714FDF8E7FFF787FDF5E7FFF7EEFDF2E70020F0E700BF0040064008B519B16C
S32500015480012931D0002008BD0438032857D8DFE800F010021922FFF76FFD02462A4BD3F871
S325000154A0040300F007000028EDD0431E22FA03F0E9E7FFF7EBFC0246234BD3F8040200F06E
S325000154C00700F0E7FFF73EFC02461F4BD3F8040100F00700E7E7FFF7B9FD02461A4BD3F84C
S325000154E0040600F00700DEE70438032829D8DFE800F00B02141DFFF73FFD0246124BD3F8E0
S325000155000403C0F30220CEE7FFF7C0FC02460E4BD3F80402C0F30220C5E7FFF713FC024601
S32500015520094BD3F80401C0F30220BCE7FFF78EFD0246054BD3F80406C0F30220B3E700204B
S32500015540A1E700209FE700BF0040064008B5114B1B69C3F30113032B19D8DFE803F0020788
S32500015560101300210620FFF789FF08BD094B186900F00200002818BF4FF4FA40F5E7064B07
S325000155801868F2E700210520FFF778FFEDE70020EBE700BF00800440542FFE1F08B50B4BFC
S325000155A0186A10F080600FD003F538331B681B0E4FF0000114BF05200720FFF75FFF044B92
S325000155C05B6A0133B0FBF3F008BD00BF008004400060074038B51C4B33F810309B0003F100
S325000155E0804303F5CA231D68C5F3C0051C6804F00704AC4225D31868C0F3807010B31B6828
S32500015600C3F30263013B052B19D8DFE803F0030C101818140620FFF731FF0134B0FBF4F0DE
S3250001562005FB00000EE00420FFF728FFF5E70520FFF724FFF1E70720FFF720FFEDE7002012
S32500015640EBE7002038BD00BF4C2C02000F4B1B69C3F38103022B07D0032B0ED0002B0CBF05
S325000156604FF4FA3000207047084B186900F00200002818BF4FF4FA407047044B186900F026
S325000156800200002818BF4FF4FA4070470080044008B52D4B586810F4006054D05B68C3F314
S325000156A003130F2B09D8DFE803F00A080D08122F171C2025453329362C3E00203CE0FFF7A5
S325000156C0BBFE39E001210620FFF7D8FE34E001210420FFF7D3FE2FE001210520FFF7CEFEA4
S325000156E02AE00020FFF758FE26E001210720FFF7C5FE21E00120FFF74FFE1DE0FFF7A6FF28
S325000157001AE0FFF723FF17E0FFF748FF400813E0FFF77EFE10E0FFF741FF0C4B1B681B0E66
S325000157200AD0400808E0094B1868000E04D0FFF735FF01E04FF4FA30034B5B68C3F302233E
S325000157400133B0FBF3F008BD0080044000600740F0B5A1B0D8B104460646974B1B69C3F31F
S325000157600363032B40F0B2803146E078FFF7A2FB0546002800F0C880FFF7D2FA022800F043
S32500015780DF80032840F0828204F13E0683E201238DF80B3000228DF80C208DF80D308DF8A8
S325000157A00E208DF808308DF809308DF80A308DF816308DF814308DF815208DF80F208DF8F3
S325000157C010308DF811308DF838300D928DF825307A4906918DF81C208DF824208DF81D30A0
S325000157E08DF81E2002208DF81F008DF820308DF821308DF830308DF828208DF82F208DF863
S3250001580029200C218DF82A108DF82B208DF82C308DF82D308DF83D3003218DF83C108DF84D
S325000158204B308DF841108DF840208DF83F308DF83E308DF845008DF844308DF843208DF814
S32500015840421006208DF849008DF848208DF847308DF846105A491E9129211D918DF84C30EC
S325000158608DF84D208DF84E208DF84F208DF850308DF854308DF853308DF852208DF8512045
S325000158808DF868308DF869308DF86A308DF86B308DF86C308DF86D308DF873308DF858300F
S325000158A01792189219928DF86E308DF86F308DF870208DF871208DF872208DF87C308DF8A4
S325000158C07D308DF87E2002AC264646E7FFF754FB28B900210120FFF75DFB054688B9032342
S325000158E08DF8073000228DF8062001228DF805208DF8043001A8FFF731FD054600283FF41F
S3250001590033AF284621B0F0BD04F11001607FFFF727FA054600287FF42FAF04F1200194F850
S325000159202800FFF7B5FB0546FFF7FAF9022807D003283FF429AF012800F0AB810026AAE131
S3250001594004F13A06A7E106238DF8073002238DF8063001238DF805308DF8043001A8FFF788
S32500015960FDFC0546637F83B1012840F0A98101238DF8073000228DF806208DF805308DF857
S32500015980043001A8FFF7EAFC0546E378002B00F09781012D40F0948102238DF807300023F7
S325000159A08DF806308DF8053001238DF8043001A8FFF7D4FC054683E10040064000127A005E
S325000159C01C0DFE1F8DF80730B3788DF8063073788DF8053033788DF8043001A8FFF7BEFC76
S325000159E0054600288DD1E11DA07BFFF7D3FA0546002D86D194F8303013B1E26A9C4B1A60C7
S32500015A0094F8353053B19B490A6A22F0706294F834301B0603F0706313430B6294F84330B5
S32500015A20002B40F00B81236F002B38D0E36E002B35D000229049914802EB8206236F9B5D5F
S32500015A4031F813309B0003F1804303F5CA231F6827F080471F60236F03EB060C9F5D9CF896
S32500015A6002301B0603F0E0639CF80360F60006F0080633439CF8046006F0070633439CF82A
S32500015A800160002E14BF4FF080460026334331F8176040F826300132E36E9A42CCD394F843
S32500015AA04430C3B194F8463094F847207449486820F47F6094F84510002914BF4FF4006121
S32500015AC000211B01DBB2120202F4E062134303430B436B4A536094F84830DBB194F84A30C1
S32500015AE094F849206649096921F03F0194F84C00084394F84B10002914BF022100219B0053
S32500015B0003F00C030343120102F0300213430B435B4A136194F86030002B44D0584B196CBF
S32500015B2021F0010194F861200A431A641B6C23F0020394F86220002A14BF0222002213432D
S32500015B404F4A1364136C23F0040394F86320002A14BF042200221343494A1364136C23F04F
S32500015B60080394F86420002A14BF082200221343434A1364136C23F0100394F86520002A80
S32500015B8014BF1022002213433D4A1364136A23F0806394F86B20002A14BF4FF080620022B9
S32500015BA01343374A136294F8503033B1354B626D1A60A26D5A60E26D9A6094F86630EBB109
S32500015BC02F4A936E00209066516821F4805194F868301B0303F480530B435360906694F800
S32500015BE067305BB194F869305B0003F00E0394F86A20134343F08053214A936694F8743071
S32500015C00002B3FF47EAE20498B7803F07F0394F8752082F0010243EAC213DBB28B7094F965
S32500015C207630002BBCBF20335BB217490A7903F01F0302F0E00213430B7162E604F136019F
S32500015C400120FFF7A7FA08B105465AE604F13A010220FFF79FFA48B904F13E010320FFF712
S32500015C6099FA00283FF4DFAE05464AE6054648E6542FFE1F004006404C2C02000050064078
S32500015C8000800440582FFE1F00D0074001287FF438AE04F13606002D7FF433AEF378032BB1
S32500015CA07FF490AE94F82830002B7FF44CAE637F002B7FF45CAEE378002B7FF46DAE0125EC
S32500015CC0002D7FF41EAEE11DA07BFFF763F9054600287FF416AEF3788DF80730B3788DF865
S32500015CE0063073788DF8053033788DF8043001A8FFF734FB05467BE670B504460D461128E9
S32500015D0007D92B2840F284805A2840F2C981042070BD112879D8DFE800F00912181E2328E7
S32500015D202D32373B40474E555C636A710020FFF733FB03460020002DEAD02B60E8E70120B8
S32500015D40FFF72AFB03460020F5E70220FFF724FB03460020EFE7FFF79BFC03460020EAE79F
S32500015D60FFF794F803460020E5E7FFF705F903460020E0E7FEF7E6FF03460020DBE7FFF746
S32500015D8065F903460020D6E7B24B1B680020D2E7FFF752FB03460020CDE700210420FFF784
S32500015DA06DFB03460020C6E701210420FFF766FB03460020BFE700210520FFF75FFB0346D3
S32500015DC00020B8E701210520FFF758FB03460020B1E700210620FFF751FB03460020AAE7E9
S32500015DE001210620FFF74AFB03460020A3E700210720FFF743FB034600209CE70121072075
S32500015E00FFF73CFB0346002095E70023042092E7A0F11504162C00F20B81DFE814F017005D
S32500015E2023002F003B00460052005E006A0076007F00840090009D00AA00B300BE00C900E4
S32500015E40D400DF00EA00EF00F400FE00824BDB68C3F30163022B00F2EE80804A52F823309F
S32500015E60002056E07C4BDB68C3F38163022B00F2E5807A4A52F8233000204AE0764BDB68EE
S32500015E80C3F30173022B00F2DC80744A52F8233000203EE0704BDB689B0F022B00F2D480A2
S32500015EA06E4A52F82330002033E06B4BDB68C3F30143022B00F2CB80684A52F82330002087
S32500015EC027E0654BDB68C3F38143022B00F2CC80624A52F8233000201BE05F4BDB68C3F3D5
S32500015EE00153022B00F2C3805C4A52F8233000200FE0594BDB68C3F38153022B00F2BA80C9
S32500015F00564A52F82330002003E0FFF7C1FB03460020002D3FF4FCAE2B60F9E6FFF716FBA4
S32500015F2003460020F5E74E4B9B78DB0902D000231846EEE7FFF78AFB03460020E9E7484B16
S32500015F409B78DB0940F09980434B1B6913F0010340F096800020DCE7414B9B78DB0940F005
S32500015F6093803D4B1B6913F0020340F090800020CFE73B4B9B78DB0940F08D804FF4FA33B3
S32500015F800020C6E7344B1B6CC3F3001313B100231846BEE74FF48070BBE72F4B1B6CC3F3E8
S32500015FA0C00313B100231846B3E74FF48070B0E7294B1B6CC3F3800313B100231846A8E766
S32500015FC04FF48070A5E7244B1B6CC3F3400313B1002318469DE74FF480709AE71E4B1B6C9F
S32500015FE013F0010302D00023184692E74FF480708FE7FFF7D3FA430800208AE7FFF708FA87
S325000160000346002085E7FFF7C9FA0346154A1268120E43D0430800207BE7124B1B681B0EC0
S3250001602001D1002075E7FFF7B9FA0346002070E7002304206DE7002318466AE700231846B4
S3250001604067E70023184664E70023184661E7002318465EE7542FFE1F00800440582FFE1F88
S3250001606000D00740006007400023184651E7002318464EE7002318464BE70023184648E789
S325000160804FF47A73002044E70023184641E74FF4FA4300203DE7002318463AE7002038E730
S325000160A02C285CD9A0F13903DBB2122B63D8344A22FA03F313F0010F58D1324B33F81420D6
S325000160C0314B53F8223013F0804F51D02F4B1E5D16F0200F12D116F0400F18D116F0800FCD
S325000160E01ED116F0180F37D016F0080F21D116F0100F26D100234FF4807032E00120FFF7CC
S325000161004BF903460028ECD14FF4807029E00020FFF742F903460028E3D14FF4807020E021
S325000161200220FFF739F903460028DAD14FF4807017E000212046FFF74DFA034616F0100F96
S3250001614004D001212046FFF745FA0346002B14BF00204FF4807004E00023184601E00420A3
S325000161600023002D3FF4D4AD2B60D1E50420F7E74FF48070F4E75A2808BF0420F0D09CE713
S32500016180410104004C2C020000500640002E020010B4054C20602171A260237363730020BD
S325000161A05DF8044B704700BFAC0000202DE9F04182B007460E468DF804008DF8051003F0C2
S325000161C04BFA354B1C7B5C7301238DF80630002C52D00024304D04E00134E4B22B7BA34285
S325000161E04AD9AB6853F82430002BF5D01A79022AF2D01A68996801A890470028ECD06C738C
S32500016200002EE9D140F2031540E002238DF80630214B1B7BEBB100241F4F04E001343A7B47
S32500016220E3B29A4215D95FFA84F8BB6853F82830002BF3D01A79012AF0D01A68996801A8C5
S3250001624090470028EAD087F80D80002EE6D14FF4827503F0F3F9284602B0BDE8F081043CFE
S3250001626014F1040FF5D0B3681B59002BF7D01A68996801A89047F2E7074D2B6853F8270084
S32500016280FFF766FA6F7105460028BED000238DF80630A400004EE6E7AC00002008B5FFF7A4
S325000162A02BFD08BD29B14118002300F8013B8142FBD1704710B4064B1B6853F82040616016
S325000162C053F820309A6000205DF8044B704700BFBC00002008B5084B1B6853F8203000F0EE
S325000162E00F00064A1077D07723B15A6812B1197B9868904708BD00BFBC0000200080004086
S3250001630038B5054600F00F0400222146094800F0EAF9094B1B6853F8253053B1054A147739
S32500016320D477947701221A735A6812B1197B9868904738BD00800040BC0000202DE9F04F7A
S3250001634085B09DF838600F9D0124B4405FFA84FCB5FBFCF70CFB17571FB1012005B0BDE8D3
S32500016360F08F039302928946804600F00F07DFF8FCA03946504600F0BBF9DAF8003023F091
S325000163808003CAF800307B0103F1804202F5004B02F5104202991160534441F21002039940
S325000163A099500196009600231A463946504600F0D5F9B9F1030F12D8DFE809F0022B3B4A52
S325000163C041F2040300222BF8032064B2A4B27B0103F1804303F5004341F214029C52234C94
S325000163E02A463946204600F0D1F901223946204600F0FAF904EB471741F21C02BB5A43F0B6
S325000164000203BB521A4B1B6853F8283000201873A4E764B2A4B241F204032BF803407B011A
S3250001642003F1804303F5004341F2140200219952D5E764B2A4B241F204032BF803407B01CA
S3250001644003F1804303F5004341F214029C52C6E7002241F204032BF803207B0103F180438A
S3250001646003F5004341F214015A52B8E700800040BC00002070B582B00546079C01949DF83C
S3250001648018400094FFF75AFF064610B1304602B070BD05F00F050F4C089A2946204600F08D
S325000164A0A3F904EB451441F21C03E35A23F008031B041B0C9DF82420002A14BF08220022DC
S325000164C01343690101F1804101F5004141F21C028B52DBE70080004008B5012200F00F017B
S325000164E0024800F000F9002008BD00BF0080004008B5002200F00F01024800F0F4F80020D9
S3250001650008BD00BF0080004010B40F4B1C5C04F07F041C541C5C01F03F0104F0C0042143EE
S3250001652019541B5C03F0BF03002A14BF402200221A43054B1A541A5C42F080021A54002067
S325000165405DF8044B704700BF001002402DE9F04180460C464D7805F00F061021FFF7A2FED3
S32500016560227BA1786078FFF7CFFF074631461D4800F0BEF817B13846BDE8F0811A4B1B68AF
S3250001658043F8258053F82520157053F8253000221A73144D01223146284600F09FF82B682D
S325000165A013F0040F11D12378FF2B0ED086F0030606F1804606F5004696F8002103F00F0308
S325000165C002F0F002134386F800316568A1686278054B1B6853F82200456053F822309960A0
S325000165E0C9E700BF00800040BC000020F8B50C4617461E46234B18604021FFF753FE224DCC
S32500016600284600F09AF82A6822F0040223789B0003F0040313432B602B6823F01003627835
S32500016620002A14BF1022002213432B60102002F0EBFF164DAC1E1E3534F9020F02F0E4FF82
S32500016640A542F9D1124800F0FEF8AFB1B6B1069BB3B13C1F351F07EB8307043F002655F895
S32500016660041F54F8040FFFF771FF002818BF0646BC42F4D13046F8BD0026FBE70026F9E7E4
S325000166800026F7E7BC000020008000405C2E02000010024000F00F00400100F1804000F58F
S325000166A0004041F20C03C150704700F00F00400100F1804000F5004041F21003C150704755
S325000166C008B50A4600F00F01014800F08DF808BD0080004000487047008000400AB1417632
S325000166E07047017670470AB1C17670478176704700EB4111002341F208028B5001F5805217
S32500016700136041F204028B5241F206028B5241F20C028B5041F210028B5041F214028B526F
S3250001672041F216028B5241F218028B5041F21C028B5241F21E028B52704738B5054603684A
S3250001674023F4403323F0C60303600024E1B22846FFF7CEFF0134102CF8D138BD10B4DB00B3
S32500016760DCB29DF8083003F00703234343EAC2239DF80420120202F4E06213439BB28031E9
S3250001678000EB4111CB805DF8044B7047036813F0800F23D010B400EB411341F208041B5969
S325000167A0002B0BDB00EB41131B5913F0804F05D122F0404200EB411002510CE000EB41101B
S325000167C041F20801435823F47F7323F00303C2F30902134343505DF8044B704700EB411079
S325000167E041F20803C250704710B400EB411441F21E03E35A13F4004F14D100EB411041F24C
S325000168001E01435AC2F30E0203F400431343435241F21601435A03F400431A4342525DF864
S32500016820044B704741F21E01635AC2F3080203F47E431343635241F21601635A03F47E43FB
S325000168401A436252EBE700231A46C2540133102BFBD1704708B50020FFF73CFD08BD08B535
S325000168600120FFF737FD08BD08B50220FFF732FD08BD08B50320FFF72DFD08BD08B5042092
S32500016880FFF728FD08BD08B50520FFF723FD08BD08B50620FFF71EFD08BD08B50720FFF7C1
S325000168A019FD08BD08B50820FFF714FD08BD08B50920FFF70FFD08BD08B50A20FFF70AFDB4
S325000168C008BD08B50B20FFF705FD08BD08B50C20FFF700FD08BD08B50D20FFF7FBFC08BD0A
S325000168E008B50E20FFF7F6FC08BD08B50F20FFF7F1FC08BD38B50020FFF7ECFEC56A002425
S3250001690007E02046FFF7FCFC6D080134E4B2102C03D015F0010FF7D0F3E738BD03680B6065
S3250001692043684B6083688B60C3680B6103698B612E4BDB6CC3F303330F2B4ED8DFE803F06F
S32500016940080F13171B2125292D3135393D4145494FF40023CB6000234B61002070474FF017
S32500016960FF33CB60F7E74FF0FF33CB60F3E74FF0FF33CB60EFE74FF4E023CB604FF4805366
S32500016980EAE74FF0FF33CB60E5E74FF0FF33CB60E1E74FF0FF33CB60DDE74FF0FF33CB6057
S325000169A0D9E74FF0FF33CB60D5E74FF0FF33CB60D1E74FF0FF33CB60CDE74FF0FF33CB6078
S325000169C0C9E74FF0FF33CB60C5E74FF0FF33CB60C1E74FF40023CB60BDE7CB68044A9342E9
S325000169E094BF4FF480530023B6E700BF00800440FFFF070012F0070F50D12DE9F843064609
S32500016A008068884208D8F46804448C4204D901F50001091A00200AE03068814206D374685A
S32500016A2004448C4215D9091A002000E001205D420F465418DFF86880DFF86890A74206D05A
S32500016A4028B998F8003013F0800F04D10220BDE8F8830120EBE7702388F80030072388F805
S32500016A600730C7F3074388F80630C7F3072388F80530FBB288F80430E84305EB090CC5F13E
S32500016A8007020CEB000110F8013F0B708242F8D130460DF055F90837083DCFE701207047CB
S32500016AA000000240090002402DE9F84F9DF82CB012F0030A03D001231846BDE8F88F064698
S32500016AC014461F46D0F80880414516D3C3684344994212D201F50005A5EB08050023DFF82E
S32500016AE0A49034B12BB999F8003013F0800F0FD102230A9AC2F800A0DEE7D6F800804145A3
S32500016B0037D373684344994235D2A1EB0805E5E7702389F80030022389F80730C5F3074398
S32500016B2089F80630C5F3072389F80530EBB289F8043089F80BB03B78104A13707B780132BB
S32500016B401370BB7801321370FB780132137030460DF0F6F8034640B1094A954286BFA8F5F2
S32500016B60000AAA4408EB050ABBE7043C04370435B7E70123BDE70123BBE700BF0C00024085
S32500016B80FFFF7F000000024070B5184E367816F0800F26D01D460C46144B7021197081219B
S32500016BA0D9719C71552C15D00DF0CAF8772C19D1C0B9C5B10D4B9A7A2A70DA7B1202AA803D
S32500016BC0997B0A43AA805A7A12026A801B7A1A436A8007E0110AD972D2B29A720DF0B0F8F3
S32500016BE000E0022070BD0120FCE700BF000002402DE9F84F1E462F4B93F801A01AF0010ADE
S32500016C003DD081460C46174603698B423AD88A1841690B449A4237D8002F3BD04FF0020B93
S32500016C20DFF8908014E0984798F8013013F0010F05D1D9F81830B3F1FF3FF5D0F3E798F8BF
S32500016C40000000F071002C442E447F1B11D0A0B914F0030F01D1032F1ED814F0010F15D10C
S32500016C60012F13D97278337843EA022323805D46DAE7003018BF012002E0012000E00420D4
S32500016C80BDE8F88F0120FBE70120F9E7337823705546C9E70020F3E7F278B3781B0443EA59
S32500016CA0026332781343727843EA022323600425BAE700BF0000024038B50D4C247814F0F8
S32500016CC0800F12D00A4C702525708025E571A3719DF8103063719DF8143083F00103237120
S32500016CE0E172A2720DF02CF838BD0220FCE700BF000002402DE9F04186B00E461546984600
S32500016D00224B53F82040224B53F82070384600F08DFE864235D204EBC6046379002B33D180
S32500016D201F2E04D806F01F02012393403B63022363719DF83430A371EB7AE3716A68049250
S32500016D402A788DF80C202A7A8DF814206A7A8DF81520AA7A8DF81620002B14BF1C230C2393
S32500016D6002930C9B0093434602AA3146384600F0F9FF034608B100226271184606B0BDE87B
S32500016D80F0814FF44073F8E70223F6E7C00000207C2E02002DE9F8430C4690461F461B4BD4
S32500016DA053F820501A4B53F82060284600F03EFE844220D22B6813F0005F06D06B6BC3F338
S32500016DC003635B0007339C4218D906EBC40999F80530B3B9012289F8052046F8348089F8B6
S32500016DE006702146284600F0B3FE034650B1002289F8052006E04FF4407303E04FF44073D9
S32500016E0000E002231846BDE8F88300BF7C2E0200C000002070B50646264B53F8204094F884
S32500016E2011317BB16379DBB2032B1ED100232360A379002B39D16379DBB2032B1CBF0023CB
S32500016E40637170BD1C4B53F8205000220521284600F07EFE00220621284600F079FE0022A6
S32500016E600721284600F074FEE0E7256894F81001FFF73EFB2B6813F4001F02D16A68920CF7
S32500016E806A60C3F3034385F84830AB681BBAAB60EB681BBAEB60D4F80051002DC6D0234681
S32500016EA0002208213046A847C0E7201D04F020FCC1E700BFC00000207C2E020038B50C46F5
S32500016EC00A4B53F820500022094B53F8200000F03FFEE1006C18A37913B90023637138BD54
S32500016EE0081D284404F004FCF7E700BFC00000207C2E020070B50D46244B53F820402668BD
S32500016F00204600F07BFE16F4006F20D0236D03F000432365216D2B689B029BB26A685201B4
S32500016F2002F478721343AA6802F01F021343E868174A02EA405213432A69120402F4F8126B
S32500016F4013430B432365204600F04BFE70BD636823F007031B041B0C636061682B6803F0F2
S32500016F600703EA6843EA0263AA68120402F4E02213436A68D20402F4601213432A69920516
S32500016F8002F4400213430B436360DCE77C2E02000000E07F38B50D46154B53F820402046CC
S32500016FA000F02CFED4F8042C124B1340C4F8043CD4F8041C2B689B0203F4F8436A68520195
S32500016FC0D2B21343AA6802F007021343E8680A4A02EA005213432A69120402F4E02213433E
S32500016FE00B43C4F8043C204600F0FBFD38BD00BF7C2E0200188308C00000F03F38B50D46C0
S32500017000094B53F82040204600F0F8FD3DB9236823F480332360204600F0E3FD38BD23689B
S3250001702043F480332360F6E77C2E0200F8B50E4615461F46414B53F82040204600F0DEFD2A
S32500017040236803F07F039D4212D81F2D10D8236813F0005F1BD18EB9394B03EA874705F5D3
S32500017060087544F82570204600F0BBFD0020F8BD204600F0B6FD4FF44070F8E7012EF2D10B
S3250001708027F0604705F5087544F82570EBE7636BDB0D03F01E0307331F2B28BF1F239D42BB
S325000170A012D82368C3F30123022B2BD0032B39D0012B1BD03A460021304600F087FC05F580
S325000170C0087544F82500CEE73EB91D4B03EA874705F5087544F82570C5E7012EC3D127F02E
S325000170E0604705F5087544F82570BCE73A460121304600F06BFC40EA104005F5087544F85B
S325000171002500B0E73A460221304600F05FFC030C43EA1063034343EA102305F5087544F840
S325000171202530A0E73A460321304600F04FFC05F508754FF0FF3344F8253094E77C2E020077
S325000171400000FC1F2DE9F04782B0814688461746B04B53F820402368002B1DDA62687B7A8A
S325000171605B0303F4005322F4005213436360204600F072FC204600F041FD204600F08EFCA7
S32500017180236823F400633A7A002A60D12360226D22F00042002362E0204600F02FFD204621
S325000171A000F06FFCDAE73979204600F0A9FC0246002870D043E0236813F0005F43D02368A1
S325000171C043F4004323606AE0FB6838697D69BE69FA69616821F007010904090C616061685F
S325000171E003F0070343EA06632D0405F4E0252B43C00400F460100343920502F440021343C5
S325000172000B436360A1E0204600F0EBFCA5E002F0FBF9A9E002F0F8F9C7E002F0F5F9CDE08D
S325000172209DB108F1040808EBC505504604F07DFA0AF1080A5545F8D1012200E0012210464A
S3250001724002B0BDE8F0870122F9E70122F7E743F400632360226D22F000424FF0004313437D
S32500017260236523683A7AC3F3C0239A42E6D1636B23F48053002A14BF4FF4805200221343D2
S325000172806363BB79022B03D0236843F4003323607B79002B87D197F83430012B8BD097F8F5
S325000172A034301BB9236823F400432360F979204600F023FD3968204600F0D7FE0246002803
